:020000040800F2
:10000000683400204D19000841020008430200082E
:1000100045020008470200084902000800000000ED
:100020000000000000000000000000004B0200087B
:100030004D020008000000004F02000851020008B5
:100040006719000867190008671900086719000890
:100050006719000867190008671900086719000880
:100060006719000867190008671900086719000870
:100070006719000867190008671900086719000860
:100080006719000867190008671900086719000850
:100090006719000867190008671900086719000840
:1000A0006719000867190008671900086719000830
:1000B0006719000867190008671900086719000820
:1000C0006719000867190008671900086719000810
:1000D0006719000867190008671900086719000800
:1000E00067190008671900086719000867190008F0
:1000F00067190008671900086719000867190008E0
:1001000067190008671900086719000867190008CF
:1001100067190008671900086719000867190008BF
:1001200067190008671900086719000867190008AF
:10013000671900086719000867190008671900089F
:10014000671900086719000867190008671900088F
:10015000671900086719000867190008671900087F
:10016000671900086719000867190008671900086F
:10017000671900086719000867190008671900085F
:100180006719000867190008DFF80CD002F0BCF806
:10019000004800479D0100086834002088B0012015
:1001A00000F020F9032000F01DF9012000F042F9D1
:1001B000032000F03FF91E4C2088237A81B2227977
:1001C00002A802F017F805461A4902A801F0F4FF48
:1001D00019491848226801F0CBFB04F1100301AA69
:1001E0001548216802F052F8D4E90310884204D07F
:1001F0006FF00505012000F014F905B1FEE70F4C82
:10020000002510E00798401C07900798A042F9DBF2
:10021000032000F00FF9079502E00798401C0790B3
:100220000798A042F9DB032000F0FBF80795ECE704
:1002300000200020000000206420002040420F0029
:100240007047FEE7FEE7FEE7FEE77047704770473E
:10025000704700000CB500220192009258490868CE
:1002600040F4803008604FF4A063086800F4003068
:1002700000900198401C0190009810B90198984294
:10028000F3D10868800302D50120009000E00092BD
:100290000098012831D14A484030026842F080522B
:1002A00002604848026842F48042026044480830D4
:1002B00002680260026842F400420260026842F48E
:1002C000A0520260021F404B13600A6842F0807225
:1002D0000A600A689201FCD53C4A40F2056111604F
:1002E000016821F003010160016841F00201016031
:1002F0000168C1F381010229FAD10CBD10B534485F
:10030000016841F4700101602D48016841F001016C
:1003100001602B4A00210832116002682D4B1A40FF
:100320000260031D2C4A1A60026822F480220260D7
:1003300023480C300160FFF78DFF25494FF0006026
:100340008039086010BD70B51D4E0836306800F069
:100350000C00224B224900280FD05D1004280ED03B
:1003600008280ED00B6030681D4AC0F30310121D20
:10037000105C0A68C2400A6070BD0B60F3E70D6054
:10038000F1E70F4A121D1068C0F38054106800F0A6
:100390003F0034B1B5FBF0F01368C3F38813584342
:1003A00005E0B3FBF0F01368C3F3881358431268F9
:1003B000C2F30142521C5200B0FBF2F00860D2E7D7
:1003C000003802400070004008484006003C0240EF
:1003D00088ED00E0FFFFF6FE103000240024F4005A
:1003E000142000201CB50446FE48012150F82400CA
:1003F00000F03DFFFB48203830F814000090012049
:100400008DF8040000218DF806108DF807000220F9
:100410008DF80500F448694650F8240000F0D6FA3B
:100420001CBDF049F04A203931F8101052F8200074
:1004300001837047EB49EC4A203931F8101052F82B
:10044000200041837047E84951F820104A69E54B84
:10045000203B33F8100042404A61704770B586B0C7
:1004600004460E46DF4801213C3850F8240000F0D5
:10047000FEFE0121880300F02AFF00258DF81450AC
:100480008DF81750D748403830F814000490D648FB
:1004900004A91C3850F8240000F098FA012E25D148
:1004A000D0484338015D401E005D01F028FACD4878
:1004B0003E3830F8140002908DF80C5008208DF86A
:1004C0000D0001258DF80E5002A800F0C7FFC548A9
:1004D0004238005D8DF804000F208DF805008DF87E
:1004E00006008DF8075001A800F09FF906B070BD16
:1004F000BC49BD4A40391C3A31F8101052F820006E
:1005000000F0B8BA2DE9FC4104460E46B548B5499D
:100510001038083950F8240051F8241008430121FC
:1005200000F0A5FEAF480121183850F8240000F073
:10053000CEFEAC48AC4F2838103F10F814200838D5
:1005400030F8141057F8240000F0B8FAA54807F165
:100550000808243810F81420083830F8141058F817
:10056000240000F0ABFA00208DF8060001208DF881
:10057000070002258DF804509A48383830F81400E6
:1005800000908DF8055057F82400694600F01EFAD7
:100590008DF804509348343830F81400009058F81F
:1005A0002400694600F012FAA7F10805314655F813
:1005B000240001F00FF855F82400012101F083F820
:1005C000BDE8FC817CB5002000F066FC002000F056
:1005D00066FC00F039FC00214FF4006000F077FE6B
:1005E000824C00220821204600F068FA00220921EE
:1005F000204600F063FA00220A21204600F05EFA4D
:1006000000220B21204600F059FA00220C2120463E
:1006100000F054FA764D00220221284600F04EFAEE
:100620004FF47061009100218DF804108DF80710CF
:100630006946204600F0CAF904210091694628461F
:1006400000F0C4F9A11400916946204600F0BEF9FB
:100650007CBD2DE9FC4101210E2000F008FE634E17
:100660000C220821304600F029FA0C2209213046DC
:1006700000F024FA0C220A21304600F01FFA0C2266
:100680000B21304600F01AFA0C221146304600F0D9
:1006900015FA574F0C220221384600F00FFA4FF49A
:1006A0007060009001248DF8054002208DF8040050
:1006B00000258DF806508DF807406946304600F059
:1006C00085F9042100916946384600F07FF920033E
:1006D00000908DF807506946304600F077F9E00346
:1006E00000908DF804508DF807406946414800F0AD
:1006F0006DF90121C80200F0EAFD0121880500F032
:10070000B6FD5DE730B58FB004463B4D4FF0FA5172
:10071000284600F029FB0021284600F0B5FA2846BB
:1007200000F0EEF94FF00060009034480190029420
:10073000402003900020049005902915069189001F
:1007400007918900089109904FF440300A900420E5
:100750000B9003200C9048020D9080100E9069467B
:10076000284600F058FA01221021284600F00DFB1F
:100770002021284600F0A0FA0121284600F084FA42
:100780000FB030BD30B58FB004461B4D4FF0FA515D
:10079000284600F0E9FA0021284600F075FA2846BC
:1007A00000F0AEF94FF00060009014480190029400
:1007B0000020039004900590291506918900079167
:1007C0008900089109904FF440300A9004200B9062
:1007D00003200C9048020D9080100E906946284628
:1007E0000EE00000EC230008442000200008024036
:1007F000000C02400004024058640240802C01407A
:1008000000F009FA01221021284600F0BEFA20214A
:10081000284600F051FA0121284600F035FAAFE7EA
:100820002A4908432A4908607047F0B50F23C27867
:10083000012601784FF0E027002A1CD0244A1268D4
:1008400002F4E062C2F5E062C2F30722C2F10404DE
:10085000D3404578A54082781A402A4312011D4BA7
:10086000CA54007800F01F018E40400907EB800059
:10087000C0F80061F0BD01F01F008640480907EB99
:100880008000C0F88061F0BD134A11400143104858
:10089000001F016070470E4A121D002903D0116825
:1008A00001431160704711688143116070474FF038
:1008B000E021042804D0086920F004000861704792
:1008C000086940F004000861704700000000FA0564
:1008D0000CED00E000E400E080FFFF1F10B57F4951
:1008E000884209D10121084600F0FDFC0021BDE845
:1008F0001040012000F0F7BC7949884209D101215C
:10090000022000F0F0FC0021BDE81040022000F0C1
:10091000EABC7449884209D10121042000F0E3FCBB
:100920000021BDE81040042000F0DDBC6E49884283
:1009300009D10121082000F0D6FC0021BDE81040BB
:10094000082000F0D0BC6949884209D1012110205B
:1009500000F0C9FC0021BDE81040102000F0C3BC2D
:100960006349884209D10121202000F0BCFC00210C
:10097000BDE81040202000F0B6BC5E49884209D195
:100980000121402000F0AFFC0021BDE810404020D4
:1009900000F0A9BC5849884209D10121802000F00B
:1009A000A2FC0021BDE81040802000F09CBC53490F
:1009B00088420AD184150121204600F094FC20468B
:1009C000BDE81040002100F08EBC10BD2DE9F041C3
:1009D000002201274FF0030C07FA02F50B682B40A9
:1009E000AB422CD1066853000CFA03F4A643066010
:1009F0000E79D0F800809E4046EA080606600E791F
:100A0000012E01D0022E12D18668A64386604E794F
:100A1000D0F808809E4046EA080686604668AE43E5
:100A2000466045688E799640B6B235434560C568E4
:100A3000A543C560CC799C40C3681C43C460521C6C
:100A4000102AC9D3BDE8F0814FF6FF710160002183
:100A5000017141718171C171704708B541F48032F3
:100A60000092009AC261C1610099C161C169C06907
:100A7000009008BD0246002012690A4200D0012001
:100A80007047006980B270470246002052690A42EE
:100A900000D001207047406980B2704701837047E1
:100AA00041837047002A01D001837047418370471A
:100AB0004161704742694A404261704710B54B0737
:100AC000DB0E9A40C90800EB8100016A0F249C40AC
:100AD000A1430162016A1143016210BD000002409E
:100AE0000004024000080240000C024000100240D6
:100AF0000014024000180240001C02400020024086
:100B00002DE9F043016821F001010160002101603D
:100B100041608160C160016121214161C249C24AD5
:100B200010394FF03D08904203D1C1F80880BDE86C
:100B3000F083BD4A4FF474651832904201D18D6044
:100B4000F5E7B94A4FF474163032904201D18E6005
:100B5000EDE7B54A4FF074674832904201D18F609B
:100B6000E5E7B14BB14A6033984201D1CA60DEE794
:100B7000AD4CAF4B7834A04201D1CB60D7E7DFF862
:100B8000A8C2AC4C0CF1900C604501D1CC60CEE712
:100B9000DFF894924FF03D5C09F1A809484502D175
:100BA000C1F80CC0C3E7A449DFF88C920839484566
:100BB00002D1C1F80080BAE7DFF87C8208F118089A
:100BC000404501D10D60B2E79B4D3035A84201D1BF
:100BD0000E60ACE7984D4835A84201D10F60A6E7FA
:100BE000954D95496035091FA84201D10A609EE7DD
:100BF000914A7832904201D10B6098E78E4A903248
:100C0000904201D10C6092E78B4AA83290428ED17B
:100C1000C1F800C08BE730B50368884A1340CC6840
:100C20000A682243D1E905452C432243CC6922437B
:100C30000C6A22434C6A22438C6A22434C6B224347
:100C40008C6B22431A430260426922F00703D1E908
:100C50000B2422431A4342610A6942604A68826057
:100C60008968C16030BD0021016041608160C16060
:100C7000016141618161C161016241628162C16260
:100C80000163416381637047002904D0016841F02A
:100C9000010101607047016821F0010101607047A6
:100CA000002904D0016841F40041016070470168E7
:100CB00021F4004101607047002904D0016841F02F
:100CC000200101607047016821F020010160704738
:100CD00041607047406880B27047002A04D00268C3
:100CE00042F40022026003E0026822F40022026063
:100CF00001617047002904D0016841F4802101603E
:100D00007047016821F4802101607047002A01D0FA
:100D100001617047C16070470146002009680903FE
:100D2000002900DA01207047014600200968C90740
:100D300000D001207047406900F03800704702463B
:100D400000203D4B9A4202D2374A103A01E03A4A1B
:100D5000103A8B0001D5526800E01268384B1A40F7
:100D60000A4200D001207047334A904202D22E48F6
:100D7000103801E030481038314A8B0001EA020196
:100D800001D5C1607047816070470B06002B09DAFE
:100D900022B1436943F08003436103E0436923F0D8
:100DA00080034361802905D001F01E011AB1026859
:100DB0000A430260704702688A430260704730B598
:100DC00000241D4A904202D2174A103A01E01A4A02
:100DD000103A1C4B194205D01E2303EAD1250368A3
:100DE0002B4002E0406900F08003880001D5506884
:100DF00000E01068124A1040084201D003B10124FB
:100E0000204630BD0C4A904202D20748103801E01B
:100E1000094810380A4A8B0001EA020101D5C16075
:100E20007047816070470000106002403D00002064
:100E3000400F002000003D20106402403F801CF065
:100E40007D0F7D0F3C0F3C0F10B50121CC022046D9
:100E500000F079FA2046BDE81040002100F073BA96
:100E600030B5634B196847F6FF629143027D846891
:100E7000C568224344682C43224304680069224326
:100E800002430A431A6030BD0021017501604160D0
:100E90008160C160016170475649086070475449DC
:100EA000091F086070475248001F006800F00300E7
:100EB000704710B54E4A0168121D1160141D21685B
:100EC0006FF30A01D0E901231A43D0E90330034349
:100ED0001A430A43226010BD002101604160816015
:100EE000C1600161704742480C300068C0B2704771
:100EF00008B53F491031084400900098006808BDCB
:100F000010B53B4A016820321160121D4168116022
:100F1000141D216821F0F701D0E902231A43D0E91A
:100F2000043003431A430A43226010BD4FF0FF31DF
:100F30000160002141608160C160016141617047D1
:100F40002B482C300068704729487C300068704777
:100F500027497C3108607047254844300068704755
:100F60002549086070472449091D086070472249D7
:100F700008310860704720490C31086070471F49EC
:100F8000086070471E4908607047012181431D4871
:100F9000016070471C4908607047174914390860A0
:100FA0007047134A3832002903D011680143116099
:100FB00070471168814311607047014600200C4A58
:100FC000303212680A4200D001207047084934319B
:100FD0000860704701460020054A303212680A4214
:100FE00000D001207047024934310860704700008A
:100FF000042C0140A0802542A0852542AC812542D9
:10100000B0812542B4812542B8812542F848016863
:1010100041F001010160F64A0021083211600268C6
:10102000F44B1A400260031DF34A1A60026822F46E
:1010300080220260EE480C3001607047EC490022CB
:10104000891C0A7008707047024600205109012966
:101050000CD002290DD0E6497431096802F01F0254
:10106000012393400B4200D001207047E0490968FA
:10107000F4E7DF4970310968F0E718B50020009007
:101080004FF4A0643120FFF7DFFF0099491C009165
:101090000099A14201D00028F4D03120FFF7D4FFFD
:1010A00008B1012018BD002018BDD14A116821F0F7
:1010B000F80141EAC00010607047D04908607047ED
:1010C000CB49002270310A700A70012804D004282C
:1010D00001D1052008707047012008707047C84989
:1010E0000860704710B5029C41EA82114FF0FF3250
:1010F00002EB530241EA0241014341EA0460BC4968
:10110000091D086010BDBD4908667047800140EAAE
:101110000170B749843108607047B84988667047E4
:10112000B649C8647047B24B08331A6822F0EC62C3
:101130000843104318607047AD4B08331A6822F01B
:1011400078420843104318607047A94A0832116872
:1011500021F00301014311607047A5480830006881
:1011600000F00C007047A24A0832116821F0F0012B
:101170000143116070479E4A0832116821F4E05122
:101180000143116070479A4A0832116821F46041A6
:1011900041EAC0001060704770B5954B083319687C
:1011A00001F00C01974C00291ED0661004291DD0B7
:1011B00008291DD00460196801F0F0010909924A5C
:1011C000545C0168E14041601C6804F4E054A40AE6
:1011D000145D21FA04F484601B6803F460435B0B24
:1011E000D25CD140C16070BD0460E4E70660E2E714
:1011F0007F4A121D1168C1F38055116801F03F014B
:1012000035B1B6FBF1F11468C4F38814614305E00D
:10121000B4FBF1F11468C4F3881461431268C2F39B
:101220000142521C5200B1FBF2F10160C3E7C0F36E
:101230000121032908D16E4B0833196821F4F812F3
:101240007249014011431960694A70321168C0F354
:101250000B000143116070476949443908607047C9
:101260006749403908607047694908607047604ABB
:101270003032002903D011680143116070471168B2
:101280008143116070475A4A3432002903D01168F3
:101290000143116070471168814311607047544ADF
:1012A0003832002903D0116801431160704711687A
:1012B0008143116070474E4A4032002903D01168C3
:1012C0000143116070471168814311607047484ABB
:1012D0004432002903D0116801431160704711683E
:1012E000814311607047424A1032002903D01168CF
:1012F00001431160704711688143116070473C4A97
:101300001432002903D0116801431160704711683D
:10131000814311607047364A1832002903D01168A2
:101320000143116070471168814311607047304A72
:101330002032002903D01168014311607047116801
:101340008143116070472A4A2432002903D0116872
:101350000143116070471168814311607047244A4E
:101360005032002903D011680143116070471168A1
:101370008143116070471E4A5432002903D011681E
:101380000143116070471168814311607047184A2A
:101390005832002903D01168014311607047116869
:1013A000814311607047124A6032002903D01168EE
:1013B00001431160704711688143116070470C4A06
:1013C0006432002903D0116801431160704711682D
:1013D000814311607047064A0D32002903D011780D
:1013E00001431170704711788143117070470000FC
:1013F00000380240FFFFF6FE103000240000474294
:10140000800E47420024F40054200020FFFCFF0F10
:101410005C0147420948016841F080710160E5E7DD
:1014200001460020054A683A12680A42DED00120CF
:10143000DCE7024966390870D8E7000074380240DA
:10144000384900200860091D0860091D0860091D51
:1014500008603449344814310860704730B5314A67
:1014600083790168002B2AD013688B431360111D08
:101470000B680468A3430B60017911440B6804688E
:1014800023430B60274C083421680368994321608B
:10149000231D19680568A94319604179102905D0F1
:1014A00011440A68006802430A6030BD216802687E
:1014B00011432160196800680143196030BD00794B
:1014C000104402688A43026030BD0021016001714E
:1014D0000C22427181717047124910310A6802432F
:1014E0000A607047014600200E4A143212680A4210
:1014F00000D0012070470B49143108607047014645
:101500000020084A12680A40064B14331B680B423D
:1015100002D0002A00D0012070470249143108602F
:1015200070470000003C0140FFFF7F0010B5E64916
:10153000884209D101211020FFF705FF0021BDE8F5
:1015400010401020FFF7FFBEE04988420AD1012178
:101550004C042046FFF7EBFE2046BDE8104000217A
:10156000FFF7E5BEDA4988420AD101218C04204602
:10157000FFF7DDFE2046BDE810400021FFF7D7BE93
:10158000D44988420AD10121CC042046FFF7CFFE7E
:101590002046BDE810400021FFF7C9BECE49884271
:1015A0000AD101210C052046FFF7C1FE2046BDE807
:1015B00010400021FFF7BBBEC849884209D1012174
:1015C0002020FFF7C0FE0021BDE810402020FFF7DB
:1015D000BABE10BD7FB504460D46208A20F44051A6
:1015E000E88808432082A08941F20C618843A988D9
:1015F0002A8911436A8902431143A181A08A20F4F8
:101600004071A8890843A0826846FFF7C5FDAE482F
:10161000844202D0B148844201D1039800E002988C
:10162000A189090408D500EBC00101EB001029686D
:101630004900B0FBF1F007E000EBC00101EB001046
:1016400029688900B0FBF1F06422B0FBF2F10901D6
:101650000B096FF018056B4300EB8300A3891D0491
:101660004FF0320307D503EBC000B0FBF2F000F0FF
:101670000700084306E003EB0010B0FBF2F000F0B7
:101680000F00084320817FBD4FF4165101600021F7
:101690008180C18001810C2242818181704710B517
:1016A000028A22F470630A884C8822438C88C98895
:1016B0000C4322431A43028210BD00210180418065
:1016C0008180C1807047002904D0818941F4005194
:1016D00081817047818921F4005181817047028B9B
:1016E00002F47F420283028B0A430283704700297F
:1016F00004D0818941F40041818170478189C1F31F
:101700000E0181817047002904D0818A41F4006173
:1017100081827047818A21F4006181827047C1F320
:101720000801818070478088C0F308007047028AF2
:1017300022F00F020282028A0A43028270470029C5
:1017400004D0818941F0020181817047818921F0B3
:10175000020181817047828922F40062828182893C
:101760000A4382817047028A22F020020282028AA2
:101770000A4302827047002904D0018A41F4804163
:1017800001827047018A21F480410182704781897A
:1017900041F0010181817047002904D0818A41F024
:1017A000080181827047818A21F008018182704797
:1017B000028BD2B20283028B42EA0121018370477D
:1017C000002904D0818A41F0200181827047818AFA
:1017D00021F0200181827047002904D0818A41F0E4
:1017E000100181827047818A21F010018182704747
:1017F000828A22F004028282828A0A4382827047AD
:10180000002904D0818A41F0020181827047818AD7
:1018100021F0020181827047002A03D0828A0A43A4
:1018200082827047828A8A438282704710B540F66E
:101830006A13C1F3421301F01F040121A140012BDF
:1018400007D0022B07D014303AB102680A43026075
:1018500010BD0C30F8E71030F6E702688A430260EA
:1018600010BD0246002012880A4200D001207047B5
:101870008A05C9430180704770B5002440F66A129A
:10188000C1F3421301F01F05012606FA05F2012BF0
:101890000CD0022B0DD0838A1340090A8E40008899
:1018A00030400BB100B10124204670BD8389134044
:1018B000F3E7038A1340F0E740F66A120A0A0121AF
:1018C0009140C9430180704700100140004400402E
:1018D00000480040004C004000500040001401400F
:1018E00010B501218C032046FFF72DFD2046BDE8F1
:1018F00010400021FFF727BD11490860704710B55F
:101900008A07120F0F23934021F003040C4908317A
:1019100021440C689C430C600B68904003430B60AF
:1019200010BD0849086070470749086070470020EB
:10193000034920310968C905002900DA01207047F0
:1019400000380140DC002742000427420648804757
:1019500006480047FEE7FEE7FEE7FEE7FEE7FEE794
:10196000FEE7FEE7FEE7FEE7FD020008890100084A
:101970009FED3A0A5FEA920C53D000BFB0EC011A17
:101980000B1DF0EC010A21EE011A00EEA01AB5EED3
:10199000C01AF1EE10FAC6BFF1EEC10AC1ED000A9D
:1019A00081ED000AF0EC010A191DB0EC011A60EE9D
:1019B000A00A41EE010AF5EEC00AF1EE10FAC6BF28
:1019C000F1EEE00AC3ED000A83ED000AB0EC011A63
:1019D0000B1DF0EC010A21EE011A00EEA01AB5EE83
:1019E000C01AF1EE10FAC6BFF1EEC10AC1ED000A4D
:1019F00081ED000AB0EC011A191DF0EC010A21EE8C
:101A0000011A00EEA01AB5EEC01AF1EE10FAC6BF28
:101A1000F1EEC10AC3ED000A83ED000ABCF1010C2E
:101A2000ACD112F0030208BF704700BFF0EC010A0E
:101A30000B46B0EC011A091D60EEA00A41EE010A46
:101A4000F5EEC00AF1EE10FAC6BFF1EEE00AC3ED02
:101A5000000A83ED000A521EE8D170470000000022
:101A60002DE9F0014E0801244FF0000C04EB510762
:101A70006146A6F102082CE061452AD200EBCC05B4
:101A800000EBC104D5ED000A94ED000AC4ED000A94
:101A900085ED000AD5ED010A94ED010AC4ED010AB5
:101AA00085ED010A0CEB0705CC1900EBC50500EB31
:101AB000C404D5ED000A94ED000AC4ED000A85EDDA
:101AC000000AD5ED010A94ED010AC4ED010A85ED85
:101AD000010A00EBC104B44400EBCC0C94ED020A03
:101AE000DCED000A891CC4ED020A8CED000A94EDBD
:101AF000030ADCF80450E5608CED010AB3F800C07D
:101B000089B203EB42034145B6D9BDE8F001704705
:101B10002DE9F04F4FEA910C4FF00008474664461C
:101B200008EB0C0505EB0C0909EB0C0600EBC80AE9
:101B300000EBC9099AED000AD9ED000A99ED012AD6
:101B400000EBC50530EE201A30EE600ADAED010A2E
:101B500000EBC60608F1010870EE821A70EEC20AA8
:101B600095ED002AD6ED002A641E32EE222A71EE8F
:101B7000022A31EE421ACAED002A95ED012AD6ED6D
:101B8000012A32EE222A71EE822A71EEC21ACAEDC1
:101B9000012A95ED012AD6ED012A96ED003A4FEA89
:101BA000470A32EE622AD5ED002A02EBCA0B72EE2A
:101BB000C32A9BED003ADBED013A21EE034A01EE28
:101BC000A34A61EE831A41EE631A85ED004A30EEB6
:101BD000021A30EE420AC5ED011A02EBC70570EE9B
:101BE000E21A95ED002A70EEA20AD5ED012A21EE47
:101BF000023A0AEB070502EBC5051F4401EEA23AC3
:101C000061EE821A41EE621A89ED003AC9ED011ABD
:101C1000D5ED001A95ED011A20EE212A00EE812A59
:101C200060EEA10A40EE410A86ED002AC6ED010AE7
:101C30007FF476AF9B044FEA134BE646BCF1040FEA
:101C40007DD9E0464FEA9C0C4FF00009CA46BCF132
:101C5000000F75D94FEA490404EB090302EBC905EB
:101C600002EBC40402EBC30395ED001AD5ED011A93
:101C700094ED000AD4ED010A93ED002AD3ED012A78
:101C8000D94453468A4573D203EB0C0404EB0C068B
:101C900006EB0C0500EBC30700EBC60697ED003A18
:101CA000D6ED003A96ED015A00EBC40473EE234AD8
:101CB00033EE633AD7ED013A00EBC50533EE854AC2
:101CC00073EEC53A94ED005AD5ED005A35EE255A1B
:101CD00074EE855A74EEC54AC7ED005A94ED015A68
:101CE000D5ED015A35EE255A74EE055A34EE454AC3
:101CF000C7ED015A94ED015AD5ED015A95ED006AF0
:101D000035EE655AD4ED005A75EEC65A24EE806A57
:101D100004EE206A24EE004A04EEE04A84ED006AF4
:101D200073EEE54A73EEA53A84ED014A33EE054AB7
:101D300033EE453A24EE015A04EEA15A01E026E0C2
:101D40001BE064EE814A86ED005A43448B4244EE28
:101D5000614A23EE024A03EEA24A63EE823AC6EDDE
:101D6000014A43EE623A85ED004AC5ED013A8BD354
:101D70000AF1010AE245FFF46DAF4FEA8B434FEAE7
:101D80009E0E4FEA134BBEF1040F3FF65AAFA1EB84
:101D90000C0100224B1C4FEA9C04002B8CBF1F46F9
:101DA000BDE8F08F11190E19331900EBC20500EBD5
:101DB000C60695ED000AD6ED000A95ED012A96EDCE
:101DC000011A70EE201A70EE600A32EE010A00EB82
:101DD000C10100EBC30332EE411A91ED002AD3EDAD
:101DE000002A6244974232EE222A71EE822A31EEB4
:101DF000C22AC5ED002AD1ED011AD3ED012A71EEF8
:101E0000A21A70EE212AC5ED012A70EE612A91ED29
:101E1000010AD3ED011A93ED003A70EE611A91EDCB
:101E2000000A81ED002AC1ED012A30EE430A30EEAE
:101E3000A12A70EEE10A71EE401A31EE000A86ED39
:101E4000002AC6ED011AC3ED000A83ED010AA9D8E4
:101E5000BDE8F08F2DE9F04F4FEA910C4FF00008EC
:101E60004746644608EB0C0505EB0C0A0AEB0C062A
:101E700000EBC80900EBCA0AD9ED000A9AED001A76
:101E8000DAED012A00EBC50570EE811A70EEC10A89
:101E900099ED011A00EBC60608F1010831EE222A7D
:101EA00031EE621AD5ED002A96ED003A641E72EE0C
:101EB000832A31EEA23A71EEE21A89ED003AD5EDAD
:101EC000012A96ED013A72EE832A32EE223A32EE80
:101ED000622A89ED013AD5ED012A96ED013AD6ED57
:101EE000003A4FEA470972EEC32A95ED003A02EB39
:101EF000C90B33EE633ADBED003A9BED014A61EE2C
:101F0000A34A42EE444A22EE232A01EE842AC5ED7A
:101F1000004A70EEE21A70EEA20A85ED012A02EB89
:101F2000C70531EE032AD5ED002A31EE431A95EDAF
:101F3000013A61EEA23A09EB070502EBC5051F4421
:101F400042EE433A22EE222A01EE832ACAED003AFB
:101F50008AED012AD5ED001A95ED012A60EEA12A3D
:101F600041EE422A21EE211A00EE821AC6ED002A25
:101F700086ED011A7FF476AF9B044FEA134BE646D9
:101F8000BCF1040F7DD9E0464FEA9C0C4FF00009EC
:101F9000CA46BCF1000F75D94FEA490404EB0903A6
:101FA00002EBC90502EBC40402EBC303D5ED001A32
:101FB00095ED012AD4ED000A94ED011AD3ED002A23
:101FC00093ED013AD94453468A4573D203EB0C048E
:101FD00004EB0C0606EB0C0500EBC30700EBC60692
:101FE000D7ED003A96ED004AD6ED015A00EBC40455
:101FF00033EE845A73EEC43A97ED014A00EBC505FF
:1020000074EE254A34EE654AD4ED005A95ED006A27
:1020100075EE865A35EE256A35EE655A87ED006A0B
:10202000D4ED015A95ED016A75EE865A34EEA56A33
:1020300074EEE54A87ED016AD4ED015A95ED016A27
:10204000D5ED006A75EEC65A94ED006A36EE666A02
:1020500065EE206A44EEC16A64EEA04A45EE014A8C
:10206000C4ED006A34EE065A34EE464AC4ED014A25
:1020700073EEE54A73EEA53A64EEA15A45EE425A74
:1020800001E026E01BE025EE215AC6ED005A43444C
:102090008B4204EE825A63EEA24A44EE434A24EE97
:1020A000224A86ED015A03EE834AC5ED004A85EDCA
:1020B000014A8BD30AF1010AE245FFF46DAF4FEA02
:1020C0008B434FEA9E0E4FEA134BBEF1040F3FF6CF
:1020D0005AAFA1EB0C0100224B1C4FEA9C06002BCF
:1020E0008CBF1F46BDE8F08F91198D19AB1900EB1D
:1020F000C20400EBC505D4ED000AD5ED001AD4EDFD
:10210000012A95ED012A30EEA11A70EEE11A72EE65
:10211000820A00EBC10100EBC30332EEC22AD1ED0B
:10212000002A93ED003A6244974272EE832A31EE20
:10213000223A71EE622A23EE003A62EE802A84EDA2
:10214000003A91ED011A93ED013A31EE031A30EEA7
:10215000813A23EE003A84ED013A30EEC13AD1EDF6
:10216000010A93ED011AD3ED003A30EEC11AD1ED18
:10217000000AC1ED002A63EE002A70EEE30AC1ED09
:10218000012A71EEC12A31EE811A72EE201A72EE26
:10219000600A22EE802A21EE001A61EE801A85ED97
:1021A000002A60EE800AC5ED011A83ED001AC3ED26
:1021B000010A99D8BDE8F08F30B504460D46807805
:1021C0002188A389626801280DD02846FFF7A0FC6A
:1021D000E078012818BF30BDE28921882846A3682D
:1021E000BDE830403CE494ED040A2846FFF732FE97
:1021F000EEE7000010B401801B4C446082704FF089
:10220000000CC370102925D040291BD0B1F5807F68
:1022100010D0B1F5806F18BF4FF0FF3C02D010BC5A
:102220006046704701218181C18110499FED100AEC
:10223000816016E004218181C1810E499FED0E0A63
:1022400081600EE010218181C1810C499FED0C0A53
:10225000816006E040218181C1810A499FED0A0A1F
:10226000816080ED040ADAE7FC230008FC430008E3
:102270000000803A024400080000803B1A44000835
:102280000000803C7A4400080000803D70B40025C6
:10229000B0EC010AA1F1010CF0EC010AB4EEE00A85
:1022A000F1EE10FA3CBFB0EE600A0125ACF101047A
:1022B000A446B4F1004F0ED3F0EC010AB4EEE00AEC
:1022C000F1EE10FA3CBFB0EE600AA1EB0C05BCF1D8
:1022D000010CF1D113E0002CC8BF00260FDD00BFB8
:1022E000F0EC010AB4EEE00AF1EE10FA04D2ACEB25
:1022F0000605B0EE600A4D1B761C641EF0D182ED1F
:10230000000A1D6070BC7047064C074D06E0E0688F
:1023100040F0010394E8070098471034AC42F6D32C
:10232000FDF736FFFC4500081C46000870B501EBC0
:10233000020410F8015B15F0070301D110F8013B0E
:102340002A1106D110F8012B03E010F8016B01F8F7
:10235000016B5B1EF9D12B0705D40023521E0FD44D
:1023600001F8013BFAE710F8013B02F10202A1EB90
:10237000030303E013F8015B01F8015B521EF9D57A
:10238000A142D6D3002070BD02E008C8121F08C1C8
:10239000002AFAD170477047002001E001C1121FE6
:1023A000002AFBD170470000000006000100010078
:1023B00001000000400000048000000806000A0040
:1023C00007000B00080007000800070000100020AD
:1023D0000040008020000000000004000400000015
:1023E00004000000040000000400000008000000D9
:1023F0000800000008000000080000000000803F06
:1024000000000000C4FE7F3F880FC93B11FB7F3FE7
:10241000900E493CE6F47F3FB6C9963C43EC7F3FC3
:10242000B00AC93C29E17F3FBA49FB3C97D37F3FC3
:102430002CC3163D8FC37F3F07E02F3D0FB17F3F79
:1024400030FB483D189C7F3F6914623DAB847F3F61
:10245000742B7B3DC76A7F3F0A208A3D6D4E7F3FCC
:1024600005A9963D9D2F7F3F8C30A33D580E7F3FA1
:1024700080B6AF3D9DEA7E3FC33ABC3D6DC47E3F12
:1024800036BDC83DC99B7E3FB93DD53DB0707E3F4E
:102490002EBCE13D23437E3F7638EE3D24137E3F44
:1024A00073B2FA3DB1E07D3F0295033ECCAB7D3F78
:1024B00086CF093E74747D3FB708103EAC3A7D3F2D
:1024C0008340163E73FE7C3FDE761C3EC9BF7C3FD8
:1024D000B6AB223EB07E7C3FFCDE283E283B7C3FF4
:1024E000A2102F3E31F57B3F9840353ECDAC7B3F6F
:1024F000CF6E3B3EFC617B3F379B413EBE147B3F32
:10250000C2C5473E16C57A3F60EE4D3E02737A3F24
:102510000115543E841E7A3F97395A3E9DC7793F34
:10252000135C603E4E6E793F667C663E9812793F42
:102530007F9A6C3E7BB4783F51B6723EF853783F39
:10254000CCCF783E10F1773FE1E67E3EC58B773FFA
:10255000C07D823E1724773FCE86853E07BA763F00
:10256000938E883E974D763F07958B3EC6DE753F2E
:10257000229A8E3E976D753FDD9D913E0BFA743F1A
:1025800031A0943E2284743F17A1973EDD0B743F27
:1025900086A09A3E3F91733F789E9D3E4714733FBD
:1025A000E59AA03EF894723FC595A33E5213723F40
:1025B000128FA63E578F713FC486A93E0809713F0E
:1025C000D47CAC3E6680703F3A71AF3E73F56F3F8E
:1025D000EF63B23E30686F3FEC54B53E9ED86E3F1D
:1025E0002A44B83EBE466E3FA031BB3E93B26D3F1B
:1025F0004A1DBE3E1D1C6D3F1E07C13E5E836C3FE3
:1026000015EFC33E58E86B3F29D5C63E0C4B6B3FD8
:1026100053B9C93E7BAB6A3F8B9BCC3EA7096A3F4F
:10262000CA7BCF3E9165693F095AD23E3CBF683FA5
:102630004136D53EA816683F6B10D83ED86B673F31
:1026400080E8DA3ECCBE663F79BEDD3E880F663F4D
:102650004F92E03E0B5E653FFA63E33E59AA643F4A
:102660007533E63E73F4633FB700E93E5A3C633F7F
:10267000BBCBEB3E1082623F7994EE3E98C5613F42
:10268000EA5AF13EF206613F071FF43E2146603FE1
:10269000CBE0F63E27835F3F2DA0F93E05BE5E3FAF
:1026A000275DFC3EBEF65D3FB217FF3E532D5D3FFA
:1026B000E4E7003FC7615C3FB142023F1A945B3FD1
:1026C0003D9C033F50C45A3F84F4043F6AF2593F93
:1026D000824B063F6A1E593F36A1073F5348583F79
:1026E0009BF5083F2670573FAD480A3FE595563F9A
:1026F0006B9A0B3F93B9553FD0EA0C3F31DB543F07
:10270000DA390E3FC3FA533F84870F3F4918533FCE
:10271000CDD3103FC633523FB01E123F3D4D513F07
:102720002A68133FAF64503F39B0143F1F7A4F3FC0
:10273000D9F6153F908D4E3F073C173F029F4D3F06
:10274000C07F183F79AE4C3F00C2193FF8BB4B3FEA
:10275000C6021B3F7FC74A3F0C421C3F12D1493F74
:10276000D17F1D3FB3D8483F12BC1E3F65DE473FB7
:10277000CBF61F3F2AE2463FF92F213F03E4453FB6
:102780009967223FF5E3443FA99D233F00E2433F81
:1027900025D2243F29DE423F0A05263F70D8413F1B
:1027A0005636273FDAD0403F0566283F67C73F3F90
:1027B0001594293F1BBC3E3F82C02A3FF9AE3D3FE6
:1027C0004AEB2B3F03A03C3F69142D3F3B8F3B3F1F
:1027D000DE3B2E3FA47C3A3FA5612F3F4268393F44
:1027E000BB85303F1652383F1DA8313F233A373F53
:1027F000C9C8323F6C20363FBCE7333FF304353F56
:10280000F304353FBCE7333F6C20363FC9C8323F45
:10281000233A373F1DA8313F1652383FBB85303F22
:102820004268393FA5612F3FA47C3A3FDE3B2E3FF3
:102830003B8F3B3F69142D3F03A03C3F4AEB2B3FAE
:10284000F9AE3D3F82C02A3F1BBC3E3F1594293F55
:1028500067C73F3F0566283FDAD0403F5636273FDF
:1028600070D8413F0A05263F29DE423F25D2243F4A
:1028700000E2433FA99D233FF5E3443F9967223F90
:1028800003E4453FF92F213F2AE2463FCBF61F3FA5
:1028900065DE473F12BC1E3FB3D8483FD17F1D3F86
:1028A00012D1493F0C421C3F7FC74A3FC6021B3F23
:1028B000F8BB4B3F00C2193F79AE4C3FC07F183F79
:1028C000029F4D3F073C173F908D4E3FD9F6153F75
:1028D0001F7A4F3F39B0143FAF64503F2A68133F0F
:1028E0003D4D513FB01E123FC633523FCDD3103F36
:1028F0004918533F84870F3FC3FA533FDA390E3FDD
:1029000031DB543FD0EA0C3F93B9553F6B9A0B3FF4
:10291000E595563FAD480A3F2670573F9BF5083F67
:102920005348583F36A1073F6A1E593F824B063F26
:102930006AF2593F84F4043F50C45A3F3D9C033F20
:102940001A945B3FB142023FC7615C3FE4E7003F3E
:10295000532D5D3FB217FF3EBEF65D3F275DFC3E47
:1029600005BE5E3F2DA0F93E27835F3FCBE0F63EDC
:102970002146603F071FF43EF206613FEA5AF13EEE
:1029800098C5613F7994EE3E1082623FBBCBEB3E2F
:102990005A3C633FB700E93E73F4633F7533E63E4C
:1029A00059AA643FFA63E33E0B5E653F4F92E03EF7
:1029B000880F663F79BEDD3ECCBE663F80E8DA3EDA
:1029C000D86B673F6B10D83EA816683F4136D53E9E
:1029D0003CBF683F095AD23E9165693FCA7BCF3EF2
:1029E000A7096A3F8B9BCC3E7BAB6A3F53B9C93E7C
:1029F0000C4B6B3F29D5C63E58E86B3F15EFC33EE5
:102A00005E836C3F1E07C13E1D1C6D3F4A1DBE3ECE
:102A100093B26D3FA031BB3EBE466E3F2A44B83EE6
:102A20009ED86E3FEC54B53E30686F3FEF63B23EC8
:102A300073F56F3F3A71AF3E6680703FD47CAC3E19
:102A40000809713FC486A93E578F713F128FA63E79
:102A50005213723FC595A33EF894723FE59AA03E8B
:102A60004714733F789E9D3E3F91733F86A09A3EE8
:102A7000DD0B743F17A1973E2284743F31A0943E32
:102A80000BFA743FDD9D913E976D753F229A8E3E05
:102A9000C6DE753F07958B3E974D763F938E883EF9
:102AA00007BA763FCE86853E1724773FC07D823EAB
:102AB000C58B773FE1E67E3E10F1773FCCCF783E85
:102AC000F853783F51B6723E7BB4783F7F9A6C3EA4
:102AD0009812793F667C663E4E6E793F135C603E8D
:102AE0009DC7793F97395A3E841E7A3F0115543E5F
:102AF00002737A3F60EE4D3E16C57A3FC2C5473E2F
:102B0000BE147B3F379B413EFC617B3FCF6E3B3E1B
:102B1000CDAC7B3F9840353E31F57B3FA2102F3E38
:102B2000283B7C3FFCDE283EB07E7C3FB6AB223E9D
:102B3000C9BF7C3FDE761C3E73FE7C3F8340163E61
:102B4000AC3A7D3FB708103E74747D3F86CF093E96
:102B5000CCAB7D3F0295033EB1E07D3F73B2FA3DC1
:102B600024137E3F7638EE3D23437E3F2EBCE13D6D
:102B7000B0707E3FB93DD53DC99B7E3F36BDC83D57
:102B80006DC47E3FC33ABC3D9DEA7E3F80B6AF3DFB
:102B9000580E7F3F8C30A33D9D2F7F3F05A9963D6A
:102BA0006D4E7F3F0A208A3DC76A7F3F742B7B3D75
:102BB000AB847F3F6914623D189C7F3F30FB483DEA
:102BC0000FB17F3F07E02F3D8FC37F3F2CC3163DE2
:102BD00097D37F3FBA49FB3C29E17F3FB00AC93C0C
:102BE00043EC7F3FB6C9963CE6F47F3F900E493CEC
:102BF00011FB7F3F880FC93BC4FE7F3F0BA88C248D
:102C00000000803F880FC9BBC4FE7F3F900E49BCC7
:102C100011FB7F3FB6C996BCE6F47F3FB00AC9BC42
:102C200043EC7F3FBA49FBBC29E17F3F2CC316BD73
:102C300097D37F3F07E02FBD8FC37F3F30FB48BD59
:102C40000FB17F3F691462BD189C7F3F742B7BBD21
:102C5000AB847F3F0A208ABDC76A7F3F05A996BD26
:102C60006D4E7F3F8C30A3BD9D2F7F3F80B6AFBDA3
:102C7000580E7F3FC33ABCBD9DEA7E3F36BDC8BDFE
:102C80006DC47E3FB93DD5BDC99B7E3F2EBCE1BD25
:102C9000B0707E3F7638EEBD23437E3F73B2FABDFF
:102CA00024137E3F029503BEB1E07D3F86CF09BE6F
:102CB000CCAB7D3FB70810BE74747D3F834016BE19
:102CC000AC3A7D3FDE761CBE73FE7C3FB6AB22BEC7
:102CD000C9BF7C3FFCDE28BEB07E7C3FA2102FBE69
:102CE000283B7C3F984035BE31F57B3FCF6E3BBEE5
:102CF000CDAC7B3F379B41BEFC617B3FC2C547BE2D
:102D0000BE147B3F60EE4DBE16C57A3F011554BE22
:102D100002737A3F97395ABE841E7A3F135C60BEB5
:102D20009DC7793F667C66BE4E6E793F7F9A6CBECA
:102D30009812793F51B672BE7BB4783FCCCF78BE43
:102D4000F853783FE1E67EBE10F1773FC07D82BE4A
:102D5000C58B773FCE8685BE1724773F938E88BE7E
:102D600007BA763F07958BBE974D763F229A8EBE67
:102D7000C6DE753FDD9D91BE976D753F31A094BE57
:102D80000BFA743F17A197BE2284743F86A09ABEA7
:102D9000DD0B743F789E9DBE3F91733FE59AA0BEC8
:102DA0004714733FC595A3BEF894723F128FA6BE19
:102DB0005213723FC486A9BE578F713FD47CACBEFC
:102DC0000809713F3A71AFBE6680703FEF63B2BED3
:102DD00073F56F3FEC54B5BE30686F3F2A44B8BE00
:102DE0009ED86E3FA031BBBEBE466E3F4A1DBEBEE2
:102DF00093B26D3F1E07C1BE1D1C6D3F15EFC3BED4
:102E00005E836C3F29D5C6BE58E86B3F53B9C9BE37
:102E10000C4B6B3F8B9BCCBE7BAB6A3FCA7BCFBE60
:102E2000A7096A3F095AD2BE9165693F4136D5BEAE
:102E30003CBF683F6B10D8BEA816683F80E8DABE7A
:102E4000D86B673F79BEDDBECCBE663F4F92E0BE19
:102E5000880F663FFA63E3BE0B5E653F7533E6BEDF
:102E600059AA643FB700E9BE73F4633FBBCBEBBE26
:102E70005A3C633F7994EEBE1082623FEA5AF1BE3B
:102E800098C5613F071FF4BEF206613FCBE0F6BE76
:102E90002146603F2DA0F9BE27835F3F275DFCBE22
:102EA00005BE5E3FB217FFBEBEF65D3FE4E700BF62
:102EB000532D5D3FB14202BFC7615C3F3D9C03BFE4
:102EC0001A945B3F84F404BF50C45A3F824B06BF40
:102ED0006AF2593F36A107BF6A1E593F9BF508BFEA
:102EE0005348583FAD480ABF2670573F6B9A0BBFF7
:102EF000E595563FD0EA0CBF93B9553FDA390EBF7E
:102F000031DB543F84870FBFC3FA533FCDD310BF8B
:102F10004918533FB01E12BFC633523F2A6813BF31
:102F20003D4D513F39B014BFAF64503FD9F615BF86
:102F30001F7A4F3F073C17BF908D4E3FC07F18BF91
:102F4000029F4D3F00C219BF79AE4C3FC6021BBF66
:102F5000F8BB4B3F0C421CBF7FC74A3FD17F1DBF10
:102F600012D1493F12BC1EBFB3D8483FCBF61FBF9A
:102F700065DE473FF92F21BF2AE2463F996722BF0E
:102F800003E4453FA99D23BFF5E3443F25D224BF79
:102F900000E2433F0A0526BF29DE423F563627BFDF
:102FA00070D8413F056628BFDAD0403F159429BF4D
:102FB00067C73F3F82C02ABF1BBC3E3F4AEB2BBFC7
:102FC000F9AE3D3F69142DBF03A03C3FDE3B2EBF51
:102FD0003B8F3B3FA5612FBFA47C3A3FBB8530BFF1
:102FE0004268393F1DA831BF1652383FC9C832BFA9
:102FF000233A373FBCE733BF6C20363FF30435BF7D
:10300000F304353F6C2036BFBCE7333F233A37BF6C
:10301000C9C8323F165238BF1DA8313F426839BF78
:10302000BB85303FA47C3ABFA5612F3F3B8F3BBFA0
:10303000DE3B2E3F03A03CBF69142D3FF9AE3DBFE0
:103040004AEB2B3F1BBC3EBF82C02A3F67C73FBF36
:103050001594293FDAD040BF0566283F70D841BF9C
:103060005636273F29DE42BF0A05263F00E243BF0E
:1030700025D2243FF5E344BFA99D233F03E445BF88
:103080009967223F2AE246BFF92F213F65DE47BFFD
:10309000CBF61F3FB3D848BF12BC1E3F12D149BF69
:1030A000D17F1D3F7FC74ABF0C421C3FF8BB4BBFBF
:1030B000C6021B3F79AE4CBF00C2193F029F4DBFF5
:1030C000C07F183F908D4EBF073C173F1F7A4FBF00
:1030D000D9F6153FAF6450BF39B0143F3D4D51BFD5
:1030E0002A68133FC63352BFB01E123F491853BF60
:1030F000CDD3103FC3FA53BF84870F3F31DB54BF9A
:10310000DA390E3F93B955BFD0EA0C3FE59556BF6B
:103110006B9A0B3F267057BFAD480A3F534858BFC4
:103120009BF5083F6A1E59BF36A1073F6AF259BF97
:10313000824B063F50C45ABF84F4043F1A945BBFCD
:103140003D9C033FC7615CBFB142023F532D5DBF51
:10315000E4E7003FBEF65DBFB217FF3E05BE5EBFAF
:10316000275DFC3E27835FBF2DA0F93E214660BF4F
:10317000CBE0F63EF20661BF071FF43E98C561BF83
:10318000EA5AF13E108262BF7994EE3E5A3C63BF28
:10319000BBCBEB3E73F463BFB700E93E59AA64BFF3
:1031A0007533E63E0B5E65BFFA63E33E880F66BF8C
:1031B0004F92E03ECCBE66BF79BEDD3ED86B67BFA6
:1031C00080E8DA3EA81668BF6B10D83E3CBF68BFE7
:1031D0004136D53E916569BF095AD23EA7096ABFFB
:1031E000CA7BCF3E7BAB6ABF8B9BCC3E0C4B6BBF8D
:1031F00053B9C93E58E86BBF29D5C63E5E836CBF44
:1032000015EFC33E1D1C6DBF1E07C13E93B26DBFBF
:103210004A1DBE3EBE466EBFA031BB3E9ED86EBFAD
:103220002A44B83E30686FBFEC54B53E73F56FBFAB
:10323000EF63B23E668070BF3A71AF3E080971BF5E
:10324000D47CAC3E578F71BFC486A93E521372BF67
:10325000128FA63EF89472BFC595A33E471473BF64
:10326000E59AA03E3F9173BF789E9D3EDD0B74BFF3
:1032700086A09A3E228474BF17A1973E0BFA74BFB2
:1032800031A0943E976D75BFDD9D913EC6DE75BF42
:10329000229A8E3E974D76BF07958B3E07BA76BF32
:1032A000938E883E172477BFCE86853EC58B77BF29
:1032B000C07D823E10F177BFE1E67E3EF85378BFD5
:1032C000CCCF783E7BB478BF51B6723E981279BFAE
:1032D0007F9A6C3E4E6E79BF667C663E9DC779BF15
:1032E000135C603E841E7ABF97395A3E02737ABFE0
:1032F0000115543E16C57ABF60EE4D3EBE147BBF2D
:10330000C2C5473EFC617BBF379B413ECDAC7BBF16
:10331000CF6E3B3E31F57BBF9840353E283B7CBFAE
:10332000A2102F3EB07E7CBFFCDE283EC9BF7CBF12
:10333000B6AB223E73FE7CBFDE761C3EAC3A7DBF50
:103340008340163E74747DBFB708103ECCAB7DBF82
:1033500086CF093EB1E07DBF0295033E24137EBFB8
:1033600073B2FA3D23437EBF7638EE3DB0707EBF28
:103370002EBCE13DC99B7EBFB93DD53D6DC47EBF2E
:1033800036BDC83D9DEA7EBFC33ABC3D580E7FBFE7
:1033900080B6AF3D9D2F7FBF8C30A33D6D4E7FBF6C
:1033A00005A9963DC76A7FBF0A208A3DAB847FBFCF
:1033B000742B7B3D189C7FBF6914623D0FB17FBFAA
:1033C00030FB483D8FC37FBF07E02F3D97D37FBFC2
:1033D0002CC3163D29E17FBFBA49FB3C43EC7FBFBC
:1033E000B00AC93CE6F47FBFB6C9963C11FB7FBF6B
:1033F000900E493CC4FE7FBF880FC93B000080BFD0
:103400000BA80C25C4FE7FBF880FC9BB11FB7FBF73
:10341000900E49BCE6F47FBFB6C996BC43EC7FBFB3
:10342000B00AC9BC29E17FBFBA49FBBC97D37FBFB3
:103430002CC316BD8FC37FBF07E02FBD0FB17FBF69
:1034400030FB48BD189C7FBF691462BDAB847FBF51
:10345000742B7BBDC76A7FBF0A208ABD6D4E7FBFBC
:1034600005A996BD9D2F7FBF8C30A3BD580E7FBF91
:1034700080B6AFBD9DEA7EBFC33ABCBD6DC47EBF02
:1034800036BDC8BDC99B7EBFB93DD5BDB0707EBF3E
:103490002EBCE1BD23437EBF7638EEBD24137EBF34
:1034A00073B2FABDB1E07DBF029503BECCAB7DBF68
:1034B00086CF09BE74747DBFB70810BEAC3A7DBF1D
:1034C000834016BE73FE7CBFDE761CBEC9BF7CBFC8
:1034D000B6AB22BEB07E7CBFFCDE28BE283B7CBFE4
:1034E000A2102FBE31F57BBF984035BECDAC7BBF5F
:1034F000CF6E3BBEFC617BBF379B41BEBE147BBF22
:10350000C2C547BE16C57ABF60EE4DBE02737ABF14
:10351000011554BE841E7ABF97395ABE9DC779BF24
:10352000135C60BE4E6E79BF667C66BE981279BF32
:103530007F9A6CBE7BB478BF51B672BEF85378BF29
:10354000CCCF78BE10F177BFE1E67EBEC58B77BFEA
:10355000C07D82BE172477BFCE8685BE07BA76BFF0
:10356000938E88BE974D76BF07958BBEC6DE75BF1E
:10357000229A8EBE976D75BFDD9D91BE0BFA74BF0A
:1035800031A094BE228474BF17A197BEDD0B74BF17
:1035900086A09ABE3F9173BF789E9DBE471473BFAD
:1035A000E59AA0BEF89472BFC595A3BE521372BF30
:1035B000128FA6BE578F71BFC486A9BE080971BFFE
:1035C000D47CACBE668070BF3A71AFBE73F56FBF7E
:1035D000EF63B2BE30686FBFEC54B5BE9ED86EBF0D
:1035E0002A44B8BEBE466EBFA031BBBE93B26DBF0B
:1035F0004A1DBEBE1D1C6DBF1E07C1BE5E836CBFD3
:1036000015EFC3BE58E86BBF29D5C6BE0C4B6BBFC8
:1036100053B9C9BE7BAB6ABF8B9BCCBEA7096ABF3F
:10362000CA7BCFBE916569BF095AD2BE3CBF68BF95
:103630004136D5BEA81668BF6B10D8BED86B67BF21
:1036400080E8DABECCBE66BF79BEDDBE880F66BF3D
:103650004F92E0BE0B5E65BFFA63E3BE59AA64BF3A
:103660007533E6BE73F463BFB700E9BE5A3C63BF6F
:10367000BBCBEBBE108262BF7994EEBE98C561BF32
:10368000EA5AF1BEF20661BF071FF4BE214660BFD1
:10369000CBE0F6BE27835FBF2DA0F9BE05BE5EBF9F
:1036A000275DFCBEBEF65DBFB217FFBE532D5DBFEA
:1036B000E4E700BFC7615CBFB14202BF1A945BBFC1
:1036C0003D9C03BF50C45ABF84F404BF6AF259BF83
:1036D000824B06BF6A1E59BF36A107BF534858BF69
:1036E0009BF508BF267057BFAD480ABFE59556BF8A
:1036F0006B9A0BBF93B955BFD0EA0CBF31DB54BFF7
:10370000DA390EBFC3FA53BF84870FBF491853BFBE
:10371000CDD310BFC63352BFB01E12BF3D4D51BFF7
:103720002A6813BFAF6450BF39B014BF1F7A4FBFB0
:10373000D9F615BF908D4EBF073C17BF029F4DBFF6
:10374000C07F18BF79AE4CBF00C219BFF8BB4BBFDA
:10375000C6021BBF7FC74ABF0C421CBF12D149BF64
:10376000D17F1DBFB3D848BF12BC1EBF65DE47BFA7
:10377000CBF61FBF2AE246BFF92F21BF03E445BFA6
:10378000996722BFF5E344BFA99D23BF00E243BF71
:1037900025D224BF29DE42BF0A0526BF70D841BF0B
:1037A000563627BFDAD040BF056628BF67C73FBF80
:1037B000159429BF1BBC3EBF82C02ABFF9AE3DBFD6
:1037C0004AEB2BBF03A03CBF69142DBF3B8F3BBF0F
:1037D000DE3B2EBFA47C3ABFA5612FBF426839BF34
:1037E000BB8530BF165238BF1DA831BF233A37BF43
:1037F000C9C832BF6C2036BFBCE733BFF30435BF46
:10380000F30435BFBCE733BF6C2036BFC9C832BF35
:10381000233A37BF1DA831BF165238BFBB8530BF12
:10382000426839BFA5612FBFA47C3ABFDE3B2EBFE3
:103830003B8F3BBF69142DBF03A03CBF4AEB2BBF9E
:10384000F9AE3DBF82C02ABF1BBC3EBF159429BF45
:1038500067C73FBF056628BFDAD040BF563627BFCF
:1038600070D841BF0A0526BF29DE42BF25D224BF3A
:1038700000E243BFA99D23BFF5E344BF996722BF80
:1038800003E445BFF92F21BF2AE246BFCBF61FBF95
:1038900065DE47BF12BC1EBFB3D848BFD17F1DBF76
:1038A00012D149BF0C421CBF7FC74ABFC6021BBF13
:1038B000F8BB4BBF00C219BF79AE4CBFC07F18BF69
:1038C000029F4DBF073C17BF908D4EBFD9F615BF65
:1038D0001F7A4FBF39B014BFAF6450BF2A6813BFFF
:1038E0003D4D51BFB01E12BFC63352BFCDD310BF26
:1038F000491853BF84870FBFC3FA53BFDA390EBFCD
:1039000031DB54BFD0EA0CBF93B955BF6B9A0BBFE4
:10391000E59556BFAD480ABF267057BF9BF508BF57
:10392000534858BF36A107BF6A1E59BF824B06BF16
:103930006AF259BF84F404BF50C45ABF3D9C03BF10
:103940001A945BBFB14202BFC7615CBFE4E700BF2E
:10395000532D5DBFB217FFBEBEF65DBF275DFCBE37
:1039600005BE5EBF2DA0F9BE27835FBFCBE0F6BECC
:10397000214660BF071FF4BEF20661BFEA5AF1BEDE
:1039800098C561BF7994EEBE108262BFBBCBEBBE1F
:103990005A3C63BFB700E9BE73F463BF7533E6BE3C
:1039A00059AA64BFFA63E3BE0B5E65BF4F92E0BEE7
:1039B000880F66BF79BEDDBECCBE66BF80E8DABECA
:1039C000D86B67BF6B10D8BEA81668BF4136D5BE8E
:1039D0003CBF68BF095AD2BE916569BFCA7BCFBEE2
:1039E000A7096ABF8B9BCCBE7BAB6ABF53B9C9BE6C
:1039F0000C4B6BBF29D5C6BE58E86BBF15EFC3BED5
:103A00005E836CBF1E07C1BE1D1C6DBF4A1DBEBEBE
:103A100093B26DBFA031BBBEBE466EBF2A44B8BED6
:103A20009ED86EBFEC54B5BE30686FBFEF63B2BEB8
:103A300073F56FBF3A71AFBE668070BFD47CACBE09
:103A4000080971BFC486A9BE578F71BF128FA6BE69
:103A5000521372BFC595A3BEF89472BFE59AA0BE7B
:103A6000471473BF789E9DBE3F9173BF86A09ABED8
:103A7000DD0B74BF17A197BE228474BF31A094BE22
:103A80000BFA74BFDD9D91BE976D75BF229A8EBEF5
:103A9000C6DE75BF07958BBE974D76BF938E88BEE9
:103AA00007BA76BFCE8685BE172477BFC07D82BE9B
:103AB000C58B77BFE1E67EBE10F177BFCCCF78BE75
:103AC000F85378BF51B672BE7BB478BF7F9A6CBE94
:103AD000981279BF667C66BE4E6E79BF135C60BE7D
:103AE0009DC779BF97395ABE841E7ABF011554BE4F
:103AF00002737ABF60EE4DBE16C57ABFC2C547BE1F
:103B0000BE147BBF379B41BEFC617BBFCF6E3BBE0B
:103B1000CDAC7BBF984035BE31F57BBFA2102FBE28
:103B2000283B7CBFFCDE28BEB07E7CBFB6AB22BE8D
:103B3000C9BF7CBFDE761CBE73FE7CBF834016BE51
:103B4000AC3A7DBFB70810BE74747DBF86CF09BE86
:103B5000CCAB7DBF029503BEB1E07DBF73B2FABDB1
:103B600024137EBF7638EEBD23437EBF2EBCE1BD5D
:103B7000B0707EBFB93DD5BDC99B7EBF36BDC8BD47
:103B80006DC47EBFC33ABCBD9DEA7EBF80B6AFBDEB
:103B9000580E7FBF8C30A3BD9D2F7FBF05A996BD5A
:103BA0006D4E7FBF0A208ABDC76A7FBF742B7BBD65
:103BB000AB847FBF691462BD189C7FBF30FB48BDDA
:103BC0000FB17FBF07E02FBD8FC37FBF2CC316BDD2
:103BD00097D37FBFBA49FBBC29E17FBFB00AC9BCFC
:103BE00043EC7FBFB6C996BCE6F47FBF900E49BCDC
:103BF00011FB7FBF880FC9BBC4FE7FBF372354A50D
:103C0000000080BF880FC93BC4FE7FBF900E493CB7
:103C100011FB7FBFB6C9963CE6F47FBFB00AC93C32
:103C200043EC7FBFBA49FB3C29E17FBF2CC3163D63
:103C300097D37FBF07E02F3D8FC37FBF30FB483D49
:103C40000FB17FBF6914623D189C7FBF742B7B3D11
:103C5000AB847FBF0A208A3DC76A7FBF05A9963D16
:103C60006D4E7FBF8C30A33D9D2F7FBF80B6AF3D93
:103C7000580E7FBFC33ABC3D9DEA7EBF36BDC83DEE
:103C80006DC47EBFB93DD53DC99B7EBF2EBCE13D15
:103C9000B0707EBF7638EE3D23437EBF73B2FA3DEF
:103CA00024137EBF0295033EB1E07DBF86CF093E5F
:103CB000CCAB7DBFB708103E74747DBF8340163E09
:103CC000AC3A7DBFDE761C3E73FE7CBFB6AB223EB7
:103CD000C9BF7CBFFCDE283EB07E7CBFA2102F3E59
:103CE000283B7CBF9840353E31F57BBFCF6E3B3ED5
:103CF000CDAC7BBF379B413EFC617BBFC2C5473E1D
:103D0000BE147BBF60EE4D3E16C57ABF0115543E12
:103D100002737ABF97395A3E841E7ABF135C603EA5
:103D20009DC779BF667C663E4E6E79BF7F9A6C3EBA
:103D3000981279BF51B6723E7BB478BFCCCF783E33
:103D4000F85378BFE1E67E3E10F177BFC07D823E3A
:103D5000C58B77BFCE86853E172477BF938E883E6E
:103D600007BA76BF07958B3E974D76BF229A8E3E57
:103D7000C6DE75BFDD9D913E976D75BF31A0943E47
:103D80000BFA74BF17A1973E228474BF86A09A3E97
:103D9000DD0B74BF789E9D3E3F9173BFE59AA03EB8
:103DA000471473BFC595A33EF89472BF128FA63E09
:103DB000521372BFC486A93E578F71BFD47CAC3EEC
:103DC000080971BF3A71AF3E668070BFEF63B23EC3
:103DD00073F56FBFEC54B53E30686FBF2A44B83EF0
:103DE0009ED86EBFA031BB3EBE466EBF4A1DBE3ED2
:103DF00093B26DBF1E07C13E1D1C6DBF15EFC33EC4
:103E00005E836CBF29D5C63E58E86BBF53B9C93E27
:103E10000C4B6BBF8B9BCC3E7BAB6ABFCA7BCF3E50
:103E2000A7096ABF095AD23E916569BF4136D53E9E
:103E30003CBF68BF6B10D83EA81668BF80E8DA3E6A
:103E4000D86B67BF79BEDD3ECCBE66BF4F92E03E09
:103E5000880F66BFFA63E33E0B5E65BF7533E63ECF
:103E600059AA64BFB700E93E73F463BFBBCBEB3E16
:103E70005A3C63BF7994EE3E108262BFEA5AF13E2B
:103E800098C561BF071FF43EF20661BFCBE0F63E66
:103E9000214660BF2DA0F93E27835FBF275DFC3E12
:103EA00005BE5EBFB217FF3EBEF65DBFE4E7003F52
:103EB000532D5DBFB142023FC7615CBF3D9C033FD4
:103EC0001A945BBF84F4043F50C45ABF824B063F30
:103ED0006AF259BF36A1073F6A1E59BF9BF5083FDA
:103EE000534858BFAD480A3F267057BF6B9A0B3FE7
:103EF000E59556BFD0EA0C3F93B955BFDA390E3F6E
:103F000031DB54BF84870F3FC3FA53BFCDD3103F7B
:103F1000491853BFB01E123FC63352BF2A68133F21
:103F20003D4D51BF39B0143FAF6450BFD9F6153F76
:103F30001F7A4FBF073C173F908D4EBFC07F183F81
:103F4000029F4DBF00C2193F79AE4CBFC6021B3F56
:103F5000F8BB4BBF0C421C3F7FC74ABFD17F1D3F00
:103F600012D149BF12BC1E3FB3D848BFCBF61F3F8A
:103F700065DE47BFF92F213F2AE246BF9967223FFE
:103F800003E445BFA99D233FF5E344BF25D2243F69
:103F900000E243BF0A05263F29DE42BF5636273FCF
:103FA00070D841BF0566283FDAD040BF1594293F3D
:103FB00067C73FBF82C02A3F1BBC3EBF4AEB2B3FB7
:103FC000F9AE3DBF69142D3F03A03CBFDE3B2E3F41
:103FD0003B8F3BBFA5612F3FA47C3ABFBB85303FE1
:103FE000426839BF1DA8313F165238BFC9C8323F99
:103FF000233A37BFBCE7333F6C2036BFF304353F6D
:10400000F30435BF6C20363FBCE733BF233A373F5C
:10401000C9C832BF1652383F1DA831BF4268393F68
:10402000BB8530BFA47C3A3FA5612FBF3B8F3B3F90
:10403000DE3B2EBF03A03C3F69142DBFF9AE3D3FD0
:104040004AEB2BBF1BBC3E3F82C02ABF67C73F3F26
:10405000159429BFDAD0403F056628BF70D8413F8C
:10406000563627BF29DE423F0A0526BF00E2433FFE
:1040700025D224BFF5E3443FA99D23BF03E4453F78
:10408000996722BF2AE2463FF92F21BF65DE473FED
:10409000CBF61FBFB3D8483F12BC1EBF12D1493F59
:1040A000D17F1DBF7FC74A3F0C421CBFF8BB4B3FAF
:1040B000C6021BBF79AE4C3F00C219BF029F4D3FE5
:1040C000C07F18BF908D4E3F073C17BF1F7A4F3FF0
:1040D000D9F615BFAF64503F39B014BF3D4D513FC5
:1040E0002A6813BFC633523FB01E12BF4918533F50
:1040F000CDD310BFC3FA533F84870FBF31DB543F8A
:10410000DA390EBF93B9553FD0EA0CBFE595563F5B
:104110006B9A0BBF2670573FAD480ABF5348583FB4
:104120009BF508BF6A1E593F36A107BF6AF2593F87
:10413000824B06BF50C45A3F84F404BF1A945B3FBD
:104140003D9C03BFC7615C3FB14202BF532D5D3F41
:10415000E4E700BFBEF65D3FB217FFBE05BE5E3F9F
:10416000275DFCBE27835F3F2DA0F9BE2146603F3F
:10417000CBE0F6BEF206613F071FF4BE98C5613F73
:10418000EA5AF1BE1082623F7994EEBE5A3C633F18
:10419000BBCBEBBE73F4633FB700E9BE59AA643FE3
:1041A0007533E6BE0B5E653FFA63E3BE880F663F7C
:1041B0004F92E0BECCBE663F79BEDDBED86B673F96
:1041C00080E8DABEA816683F6B10D8BE3CBF683FD7
:1041D0004136D5BE9165693F095AD2BEA7096A3FEB
:1041E000CA7BCFBE7BAB6A3F8B9BCCBE0C4B6B3F7D
:1041F00053B9C9BE58E86B3F29D5C6BE5E836C3F34
:1042000015EFC3BE1D1C6D3F1E07C1BE93B26D3FAF
:104210004A1DBEBEBE466E3FA031BBBE9ED86E3F9D
:104220002A44B8BE30686F3FEC54B5BE73F56F3F9B
:10423000EF63B2BE6680703F3A71AFBE0809713F4E
:10424000D47CACBE578F713FC486A9BE5213723F57
:10425000128FA6BEF894723FC595A3BE4714733F54
:10426000E59AA0BE3F91733F789E9DBEDD0B743FE3
:1042700086A09ABE2284743F17A197BE0BFA743FA2
:1042800031A094BE976D753FDD9D91BEC6DE753F32
:10429000229A8EBE974D763F07958BBE07BA763F22
:1042A000938E88BE1724773FCE8685BEC58B773F19
:1042B000C07D82BE10F1773FE1E67EBEF853783FC5
:1042C000CCCF78BE7BB4783F51B672BE9812793F9E
:1042D0007F9A6CBE4E6E793F667C66BE9DC7793F05
:1042E000135C60BE841E7A3F97395ABE02737A3FD0
:1042F000011554BE16C57A3F60EE4DBEBE147B3F1D
:10430000C2C547BEFC617B3F379B41BECDAC7B3F06
:10431000CF6E3BBE31F57B3F984035BE283B7C3F9E
:10432000A2102FBEB07E7C3FFCDE28BEC9BF7C3F02
:10433000B6AB22BE73FE7C3FDE761CBEAC3A7D3F40
:10434000834016BE74747D3FB70810BECCAB7D3F72
:1043500086CF09BEB1E07D3F029503BE24137E3FA8
:1043600073B2FABD23437E3F7638EEBDB0707E3F18
:104370002EBCE1BDC99B7E3FB93DD5BD6DC47E3F1E
:1043800036BDC8BD9DEA7E3FC33ABCBD580E7F3FD7
:1043900080B6AFBD9D2F7F3F8C30A3BD6D4E7F3F5C
:1043A00005A996BDC76A7F3F0A208ABDAB847F3FBF
:1043B000742B7BBD189C7F3F691462BD0FB17F3F9A
:1043C00030FB48BD8FC37F3F07E02FBD97D37F3FB2
:1043D0002CC316BD29E17F3FBA49FBBC43EC7F3FAC
:1043E000B00AC9BCE6F47F3FB6C996BC11FB7F3F5B
:1043F000900E49BCC4FE7F3F880FC9BB00018000FE
:10440000800140004001C000C00120002001A00048
:10441000A00160006001E000E001100010019000C8
:10442000900150005001D000D00130003001B000A8
:10443000B00170007001F000F00108000801880070
:10444000880148004801C800C80128002801A800C8
:10445000A80168006801E800E80118001801980048
:10446000980158005801D800D80138003801B80028
:10447000B80178007801F800F80104000401840014
:10448000840144004401C400C40124002401A400A8
:10449000A40164006401E400E40114001401940028
:1044A000940154005401D400D40134003401B40008
:1044B000B40174007401F400F4010C000C018C00D0
:1044C0008C014C004C01CC00CC012C002C01AC0028
:1044D000AC016C006C01EC00EC011C001C019C00A8
:1044E0009C015C005C01DC00DC013C003C01BC0088
:1044F000BC017C007C01FC00FC0102000201820086
:10450000820142004201C200C20122002201A20037
:10451000A20162006201E200E201120012019200B7
:10452000920152005201D200D20132003201B20097
:10453000B20172007201F200F2010A000A018A005F
:104540008A014A004A01CA00CA012A002A01AA00B7
:10455000AA016A006A01EA00EA011A001A019A0037
:104560009A015A005A01DA00DA013A003A01BA0017
:10457000BA017A007A01FA00FA0106000601860003
:10458000860146004601C600C60126002601A60097
:10459000A60166006601E600E60116001601960017
:1045A000960156005601D600D60136003601B600F7
:1045B000B60176007601F600F6010E000E018E00BF
:1045C0008E014E004E01CE00CE012E002E01AE0017
:1045D000AE016E006E01EE00EE011E001E019E0097
:1045E0009E015E005E01DE00DE013E003E01BE0077
:1045F000BE017E007E01FE00FE0101001C46000897
:1046000000000020642000002C2300081C5A000831
:104610006420002004140000982300084523795DDD
:10462000BF45DCEB29C04528C5193F45459DA43D44
:104630003CD88B391845430824403C550345083C79
:10464000A7E5D8203C6A1C460845743115BE45567E
:10465000D5BFBC3CB72C08283CEA9B96603C9F2CFD
:104660006C103C486F1F103CDF0B39683C22582F00
:104670001845E33980BD3C072C64203C8B45EC0891
:104680003C0DF798283C575A0B883C2C118A104B4C
:10469000DF8A903C3618B1283CD81819103C85E9BF
:1046A00036083CFFAC6B303CCB3D5F083C6B67A9E8
:1046B000383CD254CC683C5BD4C7103C14348308DB
:1046C0003C95C86D083C4E8D3B4013B6DA39083C2A
:1046D000626D18083C203045483CEA76C7E845A999
:1046E000E5393E3C678626183C03B8AA104C4E07B5
:1046F00034103B8B29383CDC8180A03C09B7C66074
:10470000459889B53D3CE24621283C55EC8A083C59
:104710002DCA0E203C17ECD5303C3CE43B103C0647
:104720008BD1583CE33964503CE5F7F0183CF891E4
:104730008D283CE7291E203C5DD820483C98389FB6
:10474000103CA567142845E328B5383C42EBA73058
:104750003C5D85EB183C3F3150303CF735BB103C9D
:10476000E017CE083CD70C43083C8B7B79083C21F2
:10477000D52F083C0DB1EC083C4AAD4908113BFE71
:1047800097503C9C4341083C34CCACD83CCF6A2683
:10479000583C0B867618459318BDBE3C07904F38A1
:1047A0003CAE9165C83C965105203C6BE723183C14
:1047B0001E338D083C7BD50E204BB46DB03CBE1F24
:1047C000D9D03C72314D483CCA6417603CA0367D5C
:1047D000203CEA5431303C9C6AE3203CB959A38820
:1047E0003D5E5DAABB183B2A2A283CBAC91F083C7B
:1047F000F38C09683C75DC24483C85FBC7103C6D94
:1048000033E8083C118FA5283C255A83083C59D52C
:104810003E283CA72687083C1B0D2B703C29295BB2
:10482000203C20BA46703D040BDCBCD03B2EC9B006
:104830003C7C76AA203C2A78F2083C9D66B6083C6F
:1048400085312E483C52F4CE103C7F466350455C87
:10485000B78EBD3CDC9D48203C32FA86D03C994264
:10486000D3283C76070D183CB6485F103C4B8A9D18
:10487000B03C5EBB83703C469AFE103C6929FE202A
:104880003C8E45B5083CCFC790083C39B00F403C42
:10489000062DF8103C7BCA02783C336F15103C9C07
:1048A00083E4083C0B11FB483CDDD791083CE460F5
:1048B000FD1813893139303C0B806A703CD2FA5CA8
:1048C000103C2D7738083C6554C6283CF62A5268BF
:1048D0003CF06FA7C03CAF3261D83CA69C98203C0E
:1048E000114225583CD84013383CD8E58B183C1F62
:1048F0003982083CE31812383C3CC154283C9D22C4
:1049000014503C572C0E083C59A7EB804589324F78
:104910003D3C248FBA103C6DCDD7404B9785183C59
:104920000FFF45483CE27722083CDC3919703C43D4
:104930000FC8283CB7C80C503C09C2C5683CDA8097
:10494000FE183C62D420084C93D6B7103BA8D62062
:104950003C1BE5CC083CB8E341183C101D994011C4
:104960003BBE87803C7E2B77603CB8C118083C4C2E
:10497000F869203C777743303C605097083C82AF21
:10498000AC083CF3661220456752EABC3C2242ADBB
:10499000183C2657EC5045241E74BD3CFD106E1883
:1049A0003C0BB486D83CF3A38D883C770497683CD5
:1049B000A9EF06483C3C7D0E083CE715B0203C2F93
:1049C000F575383C0A010A183CBC2290183C416A33
:1049D00030383C07593D103C958B7A103CB5B5D723
:1049E000103CA58782103C3D5996403C90B0384021
:1049F0004502DC76BE3CBF2645203C964703183C6A
:104A000090112A383C7A51D9303C3EE7B9103C200D
:104A100003C3103CD61B30D03CC5ED95303CCF07CE
:104A2000AB183C1CA4B5283C379A12E83C1DAF12C9
:104A3000583C2535FB203C6E9C9A303CFDB3ED1074
:104A40003C27CD26203C1892131045778CA83D3C7E
:104A500013B7F1483C222464303CC17970203C7388
:104A6000A8F3083C981E29183CD6613BC03C5D7DEC
:104A70006F483C0A99D5403C7DA1EC403CCF95F174
:104A8000303CB3E7BAB03C51BF63103C9B41962029
:104A90003C26DB96103CC33A1C103C8A67EA083C73
:104AA000BF2EE6303C2170CC103CEFC97A603C113F
:104AB0003C5E103C1A2815083C778F14183C60D5D2
:104AC00073883C7AFA38983C289378203C04882AEA
:104AD000083C4F4B4F203C21B503303CA4B747085E
:104AE0003C842B5D803C402768283C6891B7103C93
:104AF0005C3141103C462CA7503C7C2215303CCB0D
:104B0000958E183C9FF805083C4718E0083CC03AD1
:104B100066383CDD316AB83CF5A6F7103C66896022
:104B2000403CDEDA06083C62DCC2203C9AD0F390BE
:104B30003C78030B183CC4CEE5484BA06B284513CA
:104B4000E7B8BC3CF3AC2C183C0D7218303C83AA7F
:104B500098403CEC2E91603CF76549303C50D1AD1B
:104B6000104B49D8F03C38A447183C543C98183CAA
:104B7000F830C4083CF623D6083CC5B402203CA754
:104B80005FBD1045BCE42EBB3C908586603C540163
:104B90002FF03CA6042C203C860B6F30113B962551
:104BA000883C13BC3F683CD36390083C8D4F26087B
:104BB0003C81A4F0083CAE3D8C383C5C5099103CE4
:104BC00004B5A5583C84E7D3183C48A66A603C0865
:104BD0000AAB503CA19E07603C032B6E1845FFCDED
:104BE000373D3C5BEA2E183C119CCB483C39CE4DFE
:104BF000203C0B63E5483CA6C4CF403CDAC92010FA
:104C00003CF178EA083C65503E283C171F59203C8F
:104C10001DB0BE803C8E98CE203C647434083C6944
:104C2000D58F583C10A50B283C574C41383CA7DA8F
:104C30000C203C7E3DA3103CC67D5708113B538C95
:104C4000903C4CE87D083CE44477283CB61FA860C3
:104C50003C8DD14B084CCEA988583B42F8203CCD26
:104C6000E68B083CB02D8C204575A427BD3CF76A27
:104C7000F2083C9C1FE2303C5081DE083CE447399E
:104C8000603CAE549B103CE0476C083CD1B68B08AE
:104C90003CFC7C4E903CFF1793103C1416D9603CB2
:104CA000B28C79083CB5BC9C403C44B5CF203CE775
:104CB0007915083CEAADD6203C7733F5083C917570
:104CC000FD083C05C31A203CD39A70083C162BA261
:104CD000183CAA54BF083CA05B8EB83CB53BA70863
:104CE0004B530F403C6658F4303C4F2508083C8A33
:104CF000A3439845B44AC7BE3C73CA1A883C0D51B9
:104D00006A203C1D4ACAF03CB0FC67403CA928A27E
:104D1000503C34C48B283CA2EFBE283C4E2FFB20D5
:104D20004C8B6933B03BDA41583CBF0F14283C9799
:104D300049B7184C72C654F83B207C203C639AAFAC
:104D4000503C552C31283CDE9D2F083C0B917420A3
:104D50003C54A291083CEA4951083CA8084C203C2C
:104D600063EE464845F3E1C63D3CCF509C883C9CF1
:104D7000B4A9183C62F029283CCA9289103C424EE2
:104D800031403C4CB0A7083C725DDE383C6FCD9A98
:104D9000203CCAA0B34045D71A99BE3C1166822870
:104DA0003C43FFDB183C25ED43503CE74C94303C42
:104DB000607058203C3B1475203CBA3738C83C938F
:104DC000377A283C7D434E183CD40803283CAD0478
:104DD000A3383C649B2B203C46A338103CC179CEC1
:104DE000083C8820ED403C7123C1083CB0FA0238F1
:104DF0003CFECA36103C36A4F4983CD3DA70183C1A
:104E00008074A6603CDDC65B183C34F0AB103C7D82
:104E100015AE103C540304283CEA292CE83CA8CBEE
:104E200024203CA7EDF4703CA65D71204C366786CB
:104E3000383B188E983C7FCAE3703C578439203C3D
:104E40008A03FA203C7BBD30103C3355FB103C9468
:104E5000CE0A303C33B883083CB1E085203C46B5EF
:104E600019203C56CB28683C983D7E083C27AB1D5A
:104E7000283C7B0E70203C515546103CB8B31608B8
:104E80003C65A6D5B83CC4070C483CEFFC8C283CDC
:104E900029E44B203CD9E116183CAA907CA03CE6C2
:104EA0001B8E103CDC270F204B8EF9903C81E401D7
:104EB000083CACDA0A283C5E94A3803CEDC7F608B7
:104EC0003C5DE7AD204B24B0283CBC3C81683C6590
:104ED0004674303C0C3304283C2C196F084CD38AA0
:104EE0001F183BDACAA03C1D496A183C90942A3826
:104EF0003C894DC2103CF0A1EA283C94159F104516
:104F000018386D3D3C6C7D7E283C0CC818703CFC0C
:104F100028EB283C2E2D6908457DD9F73C3CEA63F7
:104F2000A9383CCDCE94283C37D680403C069F5DC6
:104F3000E83CA2DCA6483CD817B7283C2221D6087A
:104F40004B162E603C91AC24A03C247B9E183C5612
:104F5000D716083C25E314403C9BE18D583C771460
:104F6000D5303CA86E17103CA1309B103C1D229BF5
:104F7000104B08F8983CDFA9EE083CD60EAC483C34
:104F8000FA8A81083C2A1436283CFFBEC6103C4BE6
:104F900073B9083C1C0F02303C6D66D5103C3830AC
:104FA0005B783C7FCF74603C236F6E383C05D2CA7F
:104FB000203C21BBD3084CBF9C33D83BE928403C64
:104FC00026403D183C70B50A303CD7D79ED83CDA15
:104FD0000812103CAA1DDC303CF2CE3F103C1CE90C
:104FE000FF303C0A9F95283C840E96203CDF744994
:104FF000503CB0CE3E883C81D028083CCA8EB720B9
:105000003C643562083CA68EB7403CBBB2C3083C4A
:1050100077A453583C7F51CC503C790688083C75A6
:105020002A60403C9E8E54383C454D61183D417489
:10503000B9BDC03B9845183C70F4AC083C4C847139
:10504000303CA5F8F1883C044D15103C9D47ED20FF
:105050003C976F42083CD5DEA9083CE13221203C58
:1050600002B343103C1B7A8E603C423A2A603CA952
:105070008EB1183C573B27283CC853C520133E5CD3
:1050800039103CF95373C03C755C95084BAD6BE827
:105090003C6E9522203C14FC91183C50186BE03C6F
:1050A00002C1E6403C5DEECC284B53F1C03CF253CC
:1050B0003E303C3847AE303C945EB4183C3DA07660
:1050C00010124C3A02403C34BA7B183CC8875D1041
:1050D0003CD57826083C6DAD08283CE22228103CDF
:1050E000AD421F283C3C9994183C1EFF19183CE324
:1050F000D689103CE45BE5083C28DC3F083C7E5F39
:10510000AA203C0FF484103C06D306103C99C72813
:10511000483C625C0508456BF063BD45B58D953E26
:105120003C643D9528136F1139D83CBBF71C103CEB
:10513000094E36483C417348303C9327E9103C22E5
:10514000634F483C1C5B49303C30A73318454B76D5
:105150001D403C196C60083C4F862D483CEC77287C
:10516000203CB59002103C22E80C203CA23B974822
:105170003CC103D2203CB083CE084B1910F03C0A4E
:10518000C721283C1C7CFE684C26CF79F03B7A373F
:10519000483C30638F403CA293BF283C65E3CBD0B2
:1051A0003C35EB62203CA5F29F103C22FB10103CEA
:1051B00071C84A30114B1D6FF03B2143103C9D25B7
:1051C00012403CDCEB71083C3181470813D5B639FD
:1051D000283C34E78E4813333739183CAD5DB98825
:1051E0003CB6AE15403CEB646B083CFC9044303C54
:1051F0008228C7204C3BE10E5844744FBC3CFDE272
:10520000BE483C0F3A18183C43C2BA383C35C977FF
:10521000303C5652A9103CC45284103C0325E80887
:105220003C4D6B99303C6BC027203CAF5F0E683C17
:10523000836718103CB14C57203C6E84EE103C4202
:1052400014F70845AAA591BE3C4C626C483C7A24F0
:10525000F6183C84F79E883CEF0BAA083C166AD4EB
:10526000203C3DD7EE083C06423F383C6CABD910A1
:105270003C7D8BFE283C0147F1183CE830DD083CC2
:105280008E0180883CD0A6D4103CB676A228456E0C
:10529000421D3D3C237935103C471A08783C978BDA
:1052A0002D303C2551A8183C253C70603CCC6A78D8
:1052B000203CBFD3EF083C703536203C0E581F0809
:1052C0003C7E64A3283C606DED683DBB9A84BD685C
:1052D0003BDFDC183C79670E183CA9DDFC403CB292
:1052E0009B4E183CEE62A7183C950DB9183CE5DEC4
:1052F00018184539E22E403C6F0E3A903CBA0ABB72
:10530000183C08B3DA083C53C869203CE39A2E38AD
:105310003C340890483C49120E103C36397B283CFE
:1053200013C8A3103C22DF15F03C04F913383C6D80
:1053300099E0183CC31F75283C9C6655083C97C5EE
:10534000DFD03C071966103CF19397583C37FF4873
:10535000103CFDA722903CA5670E483C562CCB186C
:105360003C92F0B5083C37F840203CB0F3E3603C99
:10537000E7A55D183CD91936183C29FDB8183C49F9
:10538000C20B403C58E994103C2F3062083C15AFEA
:105390009C303C4B60ED083C093CE4184BEB4BB8AF
:1053A0003C04370A183C2A2DFB183D0BAA78BD7027
:1053B0003B33AD183C42CFBD084BAB09F83C193923
:1053C0005D783C052670083CAB5362483C17FB52A5
:1053D000E83C0FE3BD103C1428F9E83CB0C0A80835
:1053E0003C808ABF403C772D0D283CA2D7DF183C7B
:1053F00030B22B303CCF2C1C503C5F8AB7283CA2EB
:1054000081D4203C46B2FD103C1043AC083C3280B5
:1054100015283C537288103C637A2F403CA584E0E9
:10542000A83C3AC16A603CC9062E103CD28A1130B1
:105430003CC36519183CC50C0F583CDA7E31183C4A
:10544000A8E88C083C5B07BC303CD33C2A583C5154
:105450009B5C183C03CDEC103CCD82C6203C068101
:1054600068184C68FA53183BD132803C1A10182047
:105470003C0F3712683C256E0D203CA59557083C23
:10548000F208B5083CB1849F803C0A5BC1103C9394
:105490009AD8083C651F1D08451F99853D3C399ADF
:1054A00024683C077FDA584CBA832C203BCE630833
:1054B0003C175219203C2D8B90103CE1AE11083C5A
:1054C0004376C4904CF87852103B8D52283C5FD103
:1054D000D5983CCE3ABF183C33A9D4883CA8CC938D
:1054E000183CABA4F2683C9CFB0E183C25F9B8288C
:1054F0003CC12338503C7FA198103CF0DDBE503CAD
:10550000DE2312103C6A0315203CF0E1AA483C451A
:10551000679C183CF57F71083C8FC132203CAD6E12
:105520004A083C8F4A06083C7E947A483CF6721E34
:10553000083C6E38DC303C1005A3883C5F529B0869
:105540003C648B32183C83AB9E983C48D827403C47
:1055500040DB04383C042147203CDCF27D103C97C2
:105560004144084BCECDB03C75635B983C68152731
:10557000183CCB6FA1583C122195083C0FEB8E08CC
:105580004C3EE258B83B5A5E2845CD63AA3C3C9F4E
:105590009D77103C7805E1203CCB3C5E0812BC3A7C
:1055A00069083C537EF0403CFBECDA103C0706BC3B
:1055B000103C7757E6103CC0839D403CD4B06088D7
:1055C0003C70BF78203CCDC670084595E6FA3D3C5E
:1055D000F4D4AF104B1653683CCF92C8303CC5672B
:1055E00021F03C207DA6203CDFCA09083C42144C37
:1055F000283CCA293A203CAFA2CB10125E3A89203F
:105600003C8A6256783C636498103CE482AE203C4D
:10561000023AE81045BF8ABFBC3C280EDC183CD1DA
:105620000457083CDFC780083C8EFD4F083C86BE0F
:10563000E0083C92FF22683C1414C7403CD22E8202
:10564000183C97207F083CA7309D183C1DE79928FF
:105650003CF75B14083CC47C9A183C7E0AA3283CA7
:105660000B6E39083C518BC2083C99FA2FA84C8329
:10567000235BE83BBD6D103C5A71CE203C7072023A
:10568000103CB947BC103C072507283C62E3831057
:1056900045377DD7BE3C5942C068454695E73E3CFC
:1056A0005B93CD103C763280403C7FC709083C6B51
:1056B000F9D5383CED75DB083C717981283CA08F29
:1056C00013083C18D33B183C1F8B80083CA44A812C
:1056D000083CF4EE73783C3F61A7483C59942D1880
:1056E0003C82C2A0083CBA56D6083C970ED4483C2F
:1056F0002AAB95103CDB6006083CFB7219403C214C
:10570000F506083C566802083C7BA81F303C98FB15
:105710003E103C5DEB90303C5AFE36683CA6BD79AD
:10572000203C5B12AE083CD7A63D183C53376AF8C4
:105730003C449FB4183C71D63D38456EBFFE3E3C9C
:1057400057CD17503CA01F88183CFF1D24283C1C37
:10575000FE5A083CE50C14183C305F40283C1411FC
:10576000FB103C64334D603CD496BA603CDBBF8692
:10577000083CA7F6EB203C4395D6103C6CC7D410F0
:105780004B458B503C716225383CB3E05D503C3753
:10579000B561203CF4C3E8904C0D5EDE783B690AAD
:1057A000203C259677301342E739103C22073420FD
:1057B0003CAF425A183C4CF5EC103C99E768484520
:1057C000AE2DBC3D3C030D2C203C69F867203C4BC2
:1057D000675E403CF1EC12103C0DEDDBA03C06C9CD
:1057E0007D383C68C6FC083CF2CC79083CD9A7431C
:1057F000403C409079083C9B91B9A03C5CEE8F40C6
:105800003C052BE7283C602C31203CD2407A204BD1
:10581000F9A4883C0299A0083C0BD1B5303C2E2B52
:1058200060083C843C3C283C56255738113BEF4BE4
:10583000183C4E82D4083CABC4D3384C9B1932F090
:105840003B83B5104C4CD451B83BC74E103CD024D0
:1058500071103C650414483C5F575F183C40666B10
:10586000083C146F05183CBB79FC283CEB7C86088F
:105870003C1C6DD4203CBB0AE9103C51F898083C14
:1058800016E4D1083C7AF1CE203C6B9D80803C5FD1
:10589000815D084C9D38D21844DE3DBD3C59C52B76
:1058A000084CF32B198044D5AEBE3CDFBDC8083C84
:1058B000EC8F60083C8F0C01203C513127604C7606
:1058C000B1BBC03BCF37183C400F0A083C672739B3
:1058D000183CE24671703CB631F6303C2018251871
:1058E0004B47C6D03CB5D88D583CCC3C07203CE358
:1058F0002821303C9B3985284C4DF091903B5868CD
:10590000283C704EDB183CEECF52183CA5818E38F7
:105910003CAF22840812CC3ACC203C78989F103CB3
:10592000B8E942383CDA14DC103C65F934383C49BB
:1059300050BDF03C2EDB10183C28F989083C90B58E
:105940009A083CB3BE3F283C63DE38903CA5163530
:10595000083C07F35B204C1A12FC383B0647703CAE
:10596000EAD0FF504515FE043E3C012686403CF639
:105970008041383CD52B93283C127102104B2708EC
:10598000183C1D8B9A283C558FD5503CF2657528E4
:105990003CC77BC6083C3668BA183C3DFFA2603C59
:1059A00074011D303CA2F597683C22C181E04CBCDB
:1059B0009FB5303B23D6303C9C7CCF083CA8E48A82
:1059C000083C4E153D203CDE4206403CA0902D8018
:1059D0003C22D0BF183C71A2A8083C23049B503C39
:1059E00059C736703C0C9815283C9DC37E3811620F
:1059F000042A01D481844495082009010203040685
:105A000007080919E814140140124812401A080C3A
:0C5A1000A904DA0C045938693C000000BD
:040000050800018965
:00000001FF
