:020000040800F2
:1000000038040020311D0008690200086B02000856
:100010006D0200086F020008710200080000000075
:100020000000000000000000000000007302000853
:10003000750200080000000077020008790200083D
:100040004B1D00084B1D00084B1D00084B1D0008F0
:100050004B1D00084B1D00084B1D00084B1D0008E0
:100060004B1D00084B1D00084B1D00084B1D0008D0
:100070004B1D00084B1D00084B1D00084B1D0008C0
:100080004B1D00084B1D00084B1D00084B1D0008B0
:100090004B1D00084B1D00084B1D00084B1D0008A0
:1000A0004B1D00084B1D00084B1D00084B1D000890
:1000B0004B1D00084B1D00084B1D00084B1D000880
:1000C0004B1D00084B1D00084B1D00084B1D000870
:1000D0004B1D00084B1D00084B1D00084B1D000860
:1000E0004B1D00084B1D00084B1D00084B1D000850
:1000F0004B1D00084B1D00084B1D00084B1D000840
:100100004B1D00084B1D00084B1D00084B1D00082F
:100110004B1D00084B1D00084B1D00084B1D00081F
:100120004B1D00084B1D00084B1D00084B1D00080F
:100130004B1D00084B1D00084B1D00084B1D0008FF
:100140004B1D00084B1D00084B1D00084B1D0008EF
:100150004B1D00084B1D00084B1D00084B1D0008DF
:100160004B1D00084B1D00084B1D00084B1D0008CF
:100170004B1D00084B1D00084B1D00084B1D0008BF
:100180004B1D00084B1D0008DFF80CD001F088FE65
:10019000004800479D0100083804002008B50024ED
:1001A00000941D4902E00098401C0090009888428D
:1001B000F9D300F041FB4FF6FF75284600F0A4FC90
:1001C0001F2000F038FC284600F02EFC00F03BFC1D
:1001D000C08812A100EB400080B200F0DDFC00F00E
:1001E00032FCC08813A105EA800000F0D5FC00F0C5
:1001F0002AFCC08815A100EB800080B200F0CCFC86
:100200000094184802E00099491C0091009981422D
:10021000F9D300F0D5FBFEE780969800202020203F
:100220002053544D3332463478782020202020202B
:1002300000000000204465766963652072756E6E6B
:10024000696E67206F6E2020000000002073746DBF
:10025000333266345F646973636F76657279202028
:100260000000000080F0FA027047FEE7FEE7FEE7BC
:10027000FEE7704770477047704700000CB50022DA
:10028000019200925849086840F4803008604FF4A9
:10029000A063086800F4003000900198401C0190B1
:1002A000009810B901989842F3D10868800302D5EC
:1002B0000120009000E000920098012831D14A48C6
:1002C0004030026842F0805202604848026842F4BE
:1002D000804202604448083002680260026842F4CA
:1002E00000420260026842F4A0520260021F404BCA
:1002F00013600A6842F080720A600A689201FCD5B5
:100300003C4A40F205611160016821F0030101607F
:10031000016841F0020101600168C1F38101022915
:10032000FAD10CBD10B53448016841F47001016088
:100330002D48016841F0010101602B4A002108327B
:10034000116002682D4B1A400260031D2C4A1A608E
:10035000026822F48022026023480C300160FFF71B
:100360008DFF25494FF000608039086010BD70B5E1
:100370001D4E0836306800F00C00224B2249002840
:100380000FD05D1004280ED008280ED00B60306806
:100390001D4AC0F30310121D105C0A68C2400A60B7
:1003A00070BD0B60F3E70D60F1E70F4A121D106896
:1003B000C0F38054106800F03F0034B1B5FBF0F09A
:1003C0001368C3F38813584305E0B3FBF0F01368D8
:1003D000C3F3881358431268C2F30142521C5200FF
:1003E000B0FBF2F00860D2E7003802400070004035
:1003F00008484006003C024088ED00E0FFFFF6FEA2
:10040000103000240024F4000000002070477CB568
:10041000FFF7FCFF0121042000F0AAFF042000F0F8
:1004200001FF4CF20370009000208DF804008DF85D
:100430000700FB4D6946284601F0C6F90022114627
:10044000284601F039FA00220121284601F034FA49
:1004500000220821284601F02FFA0022092128460F
:1004600001F02AFA00220A21284601F025FA00228A
:100470000E21284601F020FA00220F21284601F023
:100480001BFA4FF680700090E64C6946204601F05A
:100490009BF900220721204601F00EFA00220821D4
:1004A000204601F009FA00220921204601F004FA51
:1004B00000220A21204601F0FFF900220B212046EC
:1004C00001F0FAF900220C21204601F0F5F9002292
:1004D0000D21204601F0F0F900220E21204601F006
:1004E000EBF900220F21204601F0E6F94FF23F011F
:1004F0000091CD4E6946304601F066F90022114662
:10050000304601F0D9F900220121304601F0D4F93A
:1005100000220221304601F0CFF9002203213046AB
:1005200001F0CAF900220421304601F0C5F9002289
:100530000521304601F0C0F900220C21304601F0BF
:10054000BBF900220D21304601F0B6F900220E2140
:10055000304601F0B1F900220F21304601F0ACF92C
:100560003F210091B14E6946304601F02DF900223D
:100570001146304601F0A0F900220121304601F079
:100580009BF900220221304601F096F90022032156
:10059000304601F091F900220421304601F08CF937
:1005A00000220521304601F087F94FF46051009197
:1005B0006946284601F008F900220B21284601F07F
:1005C0007BF900220C21284601F076F900220D214A
:1005D000284601F071F9302100916946284601F062
:1005E000F3F800220421284601F066F900220521D3
:1005F000284601F061F9211500916946304601F065
:10060000E3F800220C21304601F056F90321009155
:100610006946204601F0D8F800221146204601F034
:100620004BF900220121204601F046F97CBD2DE95D
:10063000FC4101213A2001F092FA4CF23370009013
:1006400002208DF804008DF8050000248DF8064086
:100650008DF80740724F6946384601F0B5F80C2214
:100660000021384601F028F90C220121384601F01A
:1006700023F90C220421384601F01EF90C22052131
:10068000384601F019F90C220821384601F014F916
:100690000C220921384601F00FF90C220A213846B4
:1006A00001F00AF90C220E21384601F005F90C225E
:1006B0000F21384601F000F94FF680700090594E36
:1006C0006946304601F080F80C220721304601F0DF
:1006D000F3F80C220821304601F0EEF80C22092133
:1006E000304601F0E9F80C220A21304601F0E4F826
:1006F0000C220B21304601F0DFF80C221146304667
:1007000001F0DAF80C220D21304601F0D5F80C2268
:100710000E21304601F0D0F80C220F21304601F0B6
:10072000CBF8082500956946304601F04DF80C22BB
:100730000321304601F0C0F8802000906946384619
:1007400001F042F80C220A21384601F0B5F8009574
:1007500001258DF804508DF805408DF806408DF880
:1007600007406946384601F02FF86E0300968DF871
:1007700004508DF805508DF806408DF80740694605
:10078000384601F021F83146384601F085F8BDE8D9
:10079000FC8100B597B00121084601F0F8F901206D
:1007A0000190002002900921039104900590069089
:1007B0000790089009900A9010210B910C900D90D1
:1007C0000E900F90109009021191129013901490B6
:1007D00001A81590169008A800F039FD012100200D
:1007E00000F0C6FD17B000BD1149486070471149BF
:1007F000088070474FF0C04210800E48018070475B
:1008000001B581B042F2107101984843009002E0B6
:100810000098401E009000980028F9D10CBD0000FF
:10082000000C024000100240001402400018024078
:10083000140000200000106010B5FFF7F8FEFFF76D
:10084000A8FF0520FFF7DCFFFE4C0821204601F041
:1008500025F80A20FFF7D4FF0821204601F01CF8F4
:1008600001211020FFF7C6FFB2211E20FFF7C2FFB3
:1008700006212820FFF7BEFF01210020FFF7BAFF65
:1008800043F2EF010120FFF7B5FF4FF4C0610220F2
:10089000FFF7B0FF00211020FFF7ACFF0520FFF7A6
:1008A000AFFF46F630011120FFF7A4FF40F6991183
:1008B0001220FFF79FFF4FF460512620FFF79AFFA9
:1008C00033210720FFF796FF05210C20FFF792FF49
:1008D00000213020FFF78EFF40F203313120FFF777
:1008E00089FF40F207413220FFF784FF40F20133D5
:1008F00019463320FFF77EFF19463420FFF77AFFB1
:1009000040F203413520FFF775FF40F207713620B2
:10091000FFF770FF21153720FFF76CFF4FF42061C0
:100920003A20FFF767FFA1143B20FFF763FF0A217E
:100930000D20FFF75FFF4FF438510E20FFF75AFFED
:100940004FF46F414420FFF755FF00214520FFF78A
:1009500051FF40F23F114620FFF74CFF00214E208F
:10096000FFF748FF00214F20FFF744FF002122201E
:10097000FFF740FF00224FF496330020FFF737FFC8
:10098000521C9A42F9D3BDE81040AF482CE700B59D
:100990000B4601464E20FFF72DFF19464F205DF80C
:1009A00004EB27E74FF0C0410880A8480088704753
:1009B0004FF0C041222008807047A448008870474B
:1009C00000B500210846FFF7E2FFFFF7F1FF002026
:1009D0009E494FF478424FF4C8430A80401C984225
:1009E000FBD34FF4FC624FF4484301E00A80401C03
:1009F0009842FBD31F224FF4963301E00A80401C3B
:100A00009842FBD300BD03B5BDF800108E480838EE
:100A10000180BDF80410418000E78B4A083A138832
:100A2000038050880880704701B5BDF800008649F2
:100A30000839088008BD01B5BDF8000082490839B1
:100A4000488008BD704780480838406870472DE9E5
:100A5000F041054688461646002429464046FFF7E1
:100A600096FF794F083F29E0FFF7A2FF00231AE025
:100A70000C21B0FBF1F1C90080228A4036F8141035
:100A80001A410A4201D10C2805D901229A4011428B
:100A900005D10C2803D97888FFF7A9FE02E0388831
:100AA000FFF7A5FE5B1C786880889842E0D86D1C33
:100AB000ADB229464046FFF76AFF641C7868C088DB
:100AC000A042D1D8BDE8F08110B4203AD3B25E4A3A
:100AD000083A52681468D2885A4304EB420210BCA8
:100AE000B5E7F0B507460024574D4FF4A076083D12
:100AF000202221463846FFF7E7FF686881880819F9
:100B000084B2B442F4D3F0BD30B5054600240021D0
:100B10000846FFF73CFFFFF74BFF4C494FF4963078
:100B20000D80641C8442FBD330BD2DE9F043804628
:100B30000D4616469946002429464046FFF727FFF2
:100B4000414F083FB9F1000F16D1FFF731FF03E025
:100B50003888FFF74CFE641CB442F9D3BDE8F0833B
:100B6000FFF726FF3888FFF742FE6D1CADB229461D
:100B70004046FFF70CFF641CB442F1D3EEE7B0F53A
:100B8000A07F08D2002906DBEF2904DC002389B20C
:100B900080B20122C9E770472DE9F04180460D4639
:100BA0000024294E4FF4A077083E0AE02146404633
:100BB000FFF78AFF70688088204484B2BC4281D2EB
:100BC0006D1C2A78002AF1D17CE770B504460D46E9
:100BD000164621464520FFF70DFEA219B2F5A07F6B
:100BE00005D340F23F114620FFF704FE03E091B227
:100BF0004620FFF7FFFDEA18F02A02D34FF46F42B8
:100C000000E01202224391B24420FFF7F3FD29468F
:100C10002046BDE87040BAE67047F0B504460F467E
:100C200015461E460123324639462046FFF77DFF12
:100C30006019401E80B2012332463946FFF775FF26
:100C4000002305E0000C02401C00002000001060A2
:100C50002A4639462046FFF768FFB81981B22A466E
:100C60002046BDE8F04000235FE72DE9FC4F8046B9
:100C700089460320A0EB42060024154674E008EBE9
:100C8000040009EB050A01901FFA8AF180B2FFF710
:100C90007EFEFFF78DFEFE4F3888FFF7A8FD019816
:100CA000A9EB050B1FFA8BF180B2FFF770FEFFF77F
:100CB0007FFE3888FFF79BFD1FFA8AF1A8EB040A34
:100CC0001FFA8AF0FFF763FEFFF772FE3888FFF71E
:100CD0008EFD1FFA8BF11FFA8AF0FFF758FEFFF71F
:100CE00067FE3888FFF783FD09EB040081B208EB4B
:100CF000050A00901FFA8AF0FFF749FEFFF758FE39
:100D00003888FFF774FDA9EB040B1FFA8BF11FFA6B
:100D10008AF0FFF73CFEFFF74BFE3888FFF767FDD0
:100D20000098A8EB050A81B21FFA8AF0FFF72FFEA0
:100D3000FFF73EFE3888FFF75AFD1FFA8BF11FFAC6
:100D40008AF0FFF724FEFFF733FE3888FFF74FFDE8
:100D5000002E03DA06EB8406B61D04E0601B06EBEA
:100D600080060A366D1E641CAC4288D9BDE8FC8F33
:100D7000F0B50646002440F23F110020FFF707FEC1
:100D8000FFF716FEC24D01234FF41667002256F8F6
:100D9000241003FA02F0014209D02888FFF727FD4A
:100DA000521C202AF3D3641CBC42EFD3F0BD6888E8
:100DB000FFF71DFDF4E770472DE9F043074689462C
:100DC00090461C46B24E3088FFF72EFE0023424666
:100DD00049463846FFF7A9FE09EB040081B200231B
:100DE00042463846FFF7A1FE0123224649463846CF
:100DF000FFF79BFE07EB0800401E80B2012322464E
:100E00004946FFF792FE641EA5B209F101091FFAD7
:100E100089F47088FFF708FE07E02146641CA4B23D
:100E2000002342463846FFF780FE2800A5F1010561
:100E3000ADB2F2D13088BDE8F043F5E52DE9F74FCA
:100E40000746884602980321A1EB40060024029D34
:100E50008F484088FFF7E8FD4FF6FF7935E09DB1F8
:100E600009EA450208EB050A381B93461FFA8AF186
:100E700080B20023FFF759FE38195A461FFA8AF14B
:100E800080B20023FFF751FE9CB109EA440208EB4F
:100E9000040A781B93461FFA8AF180B20023FFF7F9
:100EA00044FE78195A461FFA8AF180B20023FFF7F0
:100EB0003CFE002E03DA06EB8406B61D04E0601B40
:100EC00006EB80060A366D1E641CAC42C7D970481A
:100ED0000088FFF7A9FD029A03B041463846BDE8F5
:100EE000F04FC2E62DE9FC5F84460C460027A2EBDA
:100EF0000C00002801DCACEB020000B2191B002939
:100F000000DCE11A09B20FFA8CF526B24FF0FF3B74
:100F1000624503D34FF00109CA4601E0D946DA46DB
:100F2000A34204D34FF0010B0122019201E0CDF85E
:100F300004B088420ADB4FF000090022019200EB66
:100F4000D072521014B20091804623E04FF0000A94
:100F5000D34601EBD172521014B20090884619E0CA
:100F600031462846FFF70BFE0098204404B2444562
:100F700008DBA4EB080004B205EB090005B206EBA0
:100F80000B0006B205EB0A0005B20198304406B228
:100F90007F1C3FB24745E3DDBDE8FC9F70B50446CA
:100FA0000D46022D0DD308E020886188241D89B2EA
:100FB0006388228880B2FFF795FF6D1E2D042D0CEB
:100FC000F2D170BD2DE9F04704460F469146A04688
:100FD000022F25D3B4F90050B4F9026010E0241DAB
:100FE000B1B26088304483B22088284482B2A8B26B
:100FF000FFF778FF2088284405B26088304406B2A5
:101000007F1E3F043F0CEAD1B9F1000F08D0B3B204
:10101000AAB2B8F80210B8F80000BDE8F04761E7DE
:10102000BDE8F08770B504460D4629462046FFF717
:10103000B5FF04EB8500001F618843880288208883
:10104000BDE870404EE70022BCE70122BAE72DE977
:10105000F34F04462DED028BE7B0B4F80080C14693
:1010600062880092012017E004EB80014988414525
:1010700000D28846494500D9894634F820A09245D7
:1010800000D2524600998A4501D9CDF800A001E06E
:1010900014000020401C80B26A998842E4D3604862
:1010A0004088FFF7C1FC92460DF1040BABE000262F
:1010B0006A98401E87B2002552E0504600F05BFE61
:1010C00041EC180B6591669034F9250000F042FE62
:1010D00053EC182B00F05CFE0CD26599669841EC3D
:1010E000180B34F9270000F035FE53EC182B00F0F4
:1010F00063FE19D96599669841EC180B34F92700FD
:1011000000F028FE53EC182B00F042FE25D2659922
:10111000669841EC180B34F9250000F01BFE53ECE7
:10112000182B00F049FE18D804EB870004EB85016A
:10113000B0F90200B1F90210421A34F92500AAEB05
:1011400000035A4334F92730181A92FBF0F0014497
:101150003046761CB6B22BF810102F466D1CADB27F
:101160006A988542A9D30020751E0FE0411C3BF808
:1011700010303BF81120934207D92BF810202BF8A0
:10118000113018B1401E80B200E088B2A842EDDBF9
:10119000002532E03BF81500484530D26F1C3BF883
:1011A0001710414527D9404501D22BF815803BF84F
:1011B0001700484501D92BF8179019484088FFF7C8
:1011C00033FC3BF817103BF815000023081A82B2D5
:1011D0005046FFF7AAFC12480088FFF725FC3BF9B0
:1011E00017100FFA8AF00746FFF7C9FC3BF91510F4
:1011F0003846FFF7C4FCAD1CADB2B542CAD30AF104
:10120000010A1FFA8AFA00988245FFF450AF044899
:10121000008867B0BDEC028BBDE8FC4F04E4000021
:10122000140000204FF0204202EB800100280AD079
:1012300043F2D2030B60401C6FF0704342F8203041
:10124000C1F80431704743F2DB031360F3E730B5B4
:10125000D0E901121143D0E903231A431143426933
:101260000368114382691143C2691143026A114341
:10127000426A1143826A1143C26A1143026B1143ED
:101280004FF0204242F823108168082906D10168F6
:1012900002EB81010B6843F040030B60416BD1E925
:1012A000003443EA04138C688D89240244EA05441F
:1012B00023430C8A43EA04530C7D896943EA04639F
:1012C0000B430168491C42F82130C16AB1F5804FD7
:1012D00007D000686FF0704102EB8000C0F8041185
:1012E00030BD816B0068D1E9003443EA04138C6897
:1012F0000D8A240244EA055423430C7D896943EA9C
:10130000046302EB80000B43C0F8043130BD10B51C
:1013100000210160022242608160C160016141617F
:101320008161C1610162D202426252008262C16285
:101330000163436B0F221A60436B5A60446BFF23B7
:10134000A360446BE260446B2261446B6261446B56
:10135000A161846B2260846B6260846BA360836B89
:10136000DA60836B1A61836B5A61806B816110BD97
:101370004FF0204202EB8000002904D0016841F0C8
:101380000101016070470168D14A11400160704756
:1013900010B5182440234FF020414FF0FC321028A4
:1013A00005D041F8804F4B608A60CA6010BD0C6662
:1013B0004B668A66CA6610BD30B5D0E9011211438A
:1013C000D0E903231A431143426941EA4221826969
:1013D00041EA423141F00804C169D1E9002342EAFF
:1013E00003220B89097B1B0443EA01610A43016A5A
:1013F000D1E9003543EA05230D89097B2D0445EA2F
:1014000001610B4301684FF02040102904D040F8DF
:10141000804F8260C36030BD04668266C36630BDA3
:1014200010210160002141608160C1600161416162
:101430008161C269FC211160C2695160C269916019
:10144000C269D160026A1160026A5160026A9160E9
:10145000006AC16070474FF0204200290CD010286C
:1014600005D052F8800F40F0040010607047106EF5
:1014700040F00400106670479549C91E102804D03A
:1014800052F8800F084010607047106E08401066D8
:1014900070474FF0204200290CD0102805D052F898
:1014A000800F40F0400010607047106E40F0400028
:1014B0001066704786493F39102804D052F8800FD3
:1014C000084010607047106E0840106670474FF07B
:1014D0002041102802D0D1F894007047486F70471F
:1014E0007C4818210160002141604FF0FC3181608F
:1014F000C1600161704710B5D0E9001241EA422194
:101500008268102343EA42321143724A1160C16873
:10151000D1E9003443EA04230C89097B4FEA0444EF
:1015200044EA016143EA010393600169D1E90034AF
:1015300043EA04230C89097B4FEA044444EA01612D
:1015400043EA0103D3604069D0E9001341EA032173
:101550000389007B4FEA034343EA006041EA00014C
:10156000116110BD0021016041608160C268FC21F1
:101570001160C2685160C2689160C268D16002693E
:10158000116002695160026991600269D16042692B
:10159000116042695160426991604069C160704761
:1015A0004FF02041002805D051F8A00F40F0040072
:1015B0000860704751F8A00F454AD21E10400860DD
:1015C000704710B54FF480744FF02043002A11D0BB
:1015D000102806D0A04208D153F8840F08431860A1
:1015E00010BD586E0843586610BD53F8A40F084349
:1015F000186010BD102806D0A04208D153F8840FFF
:101600008843186010BD586E8843586610BD53F863
:10161000A40F8843186010BD034600204FF02042FD
:10162000102B08D0B3F5807F07D0D2F8A4200A424F
:1016300000D001207047526EF9E7D2F88420F6E717
:101640004FF02042102807D0B0F5807F08D052F824
:10165000A40F884310607047506E884350667047EF
:1016600052F8840F884310607047034600204FF003
:101670002042102B0ED0B3F5807F0DD0D2F8A420DD
:1016800002EA010302EAD101002B02D0002900D0B6
:1016900001207047526EF3E7D2F88420F0E74FF054
:1016A0002042102808D0B0F5807F0AD052F8A40F4D
:1016B00020EAD10010607047506E20EAD1005066D9
:1016C000704752F8840F20EAD10010607047000084
:1016D000FEFF0F00A00000A010B57F49884209D18D
:1016E0000121084600F077FA0021BDE810400120F2
:1016F00000F071BA7949884209D10121022000F035
:101700006AFA0021BDE81040022000F064BA744972
:10171000884209D10121042000F05DFA0021BDE8D2
:101720001040042000F057BA6E49884209D10121C7
:10173000082000F050FA0021BDE81040082000F019
:101740004ABA6949884209D10121102000F043FAC0
:101750000021BDE81040102000F03DBA63498842E6
:1017600009D10121202000F036FA0021BDE8104007
:10177000202000F030BA5E49884209D10121402082
:1017800000F029FA0021BDE81040402000F023BA03
:101790005849884209D10121802000F01CFA00211B
:1017A000BDE81040802000F016BA534988420AD1A3
:1017B00084150121204600F00EFA2046BDE81040B5
:1017C000002100F008BA10BD2DE9F04100220127E8
:1017D0004FF0030C07FA02F50B682B40AB422CD1FB
:1017E000066853000CFA03F4A64306600E79D0F89D
:1017F00000809E4046EA080606600E79012E01D060
:10180000022E12D18668A64386604E79D0F80880F1
:101810009E4046EA080686604668AE4346604568D4
:101820008E799640B6B235434560C568A543C5601C
:10183000CC799C40C3681C43C460521C102AC9D395
:10184000BDE8F0814FF6FF71016000210171417127
:101850008171C171704708B541F480320092009ADD
:10186000C261C1610099C161C169C069009008BDD0
:101870000246002012690A4200D001207047006928
:1018800080B270470246002052690A4200D001200F
:101890007047406980B27047018370474183704749
:1018A000002A01D00183704741837047416170472E
:1018B00042694A404261704710B54B07DB0E9A40BF
:1018C000C90800EB8100016A0F249C40A14301621A
:1018D000016A1143016210BD000002400004024091
:1018E00000080240000C02400010024000140240B8
:1018F00000180240001C024000200240F848016825
:1019000041F001010160F64A0021083211600268CD
:10191000F44B1A400260031DF34A1A60026822F475
:1019200080220260EE480C3001607047EC490022D2
:10193000891C0A700870704702460020510901296D
:101940000CD002290DD0E6497431096802F01F025B
:10195000012393400B4200D001207047E049096801
:10196000F4E7DF4970310968F0E718B5002000900E
:101970004FF4A0643120FFF7DFFF0099491C00916C
:101980000099A14201D00028F4D03120FFF7D4FF04
:1019900008B1012018BD002018BDD14A116821F0FE
:1019A000F80141EAC00010607047D04908607047F4
:1019B000CB49002270310A700A70012804D0042833
:1019C00001D1052008707047012008707047C84990
:1019D0000860704710B5029C41EA82114FF0FF3257
:1019E00002EB530241EA0241014341EA0460BC496F
:1019F000091D086010BDBD4908667047800140EAB6
:101A00000170B749843108607047B84988667047EB
:101A1000B649C8647047B24B08331A6822F0EC62CA
:101A20000843104318607047AD4B08331A6822F022
:101A300078420843104318607047A94A0832116879
:101A400021F00301014311607047A5480830006888
:101A500000F00C007047A24A0832116821F0F00132
:101A60000143116070479E4A0832116821F4E05129
:101A70000143116070479A4A0832116821F46041AD
:101A800041EAC0001060704770B5954B0833196883
:101A900001F00C01974C00291ED0661004291DD0BE
:101AA00008291DD00460196801F0F0010909924A63
:101AB000545C0168E14041601C6804F4E054A40AED
:101AC000145D21FA04F484601B6803F460435B0B2B
:101AD000D25CD140C16070BD0460E4E70660E2E71B
:101AE0007F4A121D1168C1F38055116801F03F0152
:101AF00035B1B6FBF1F11468C4F38814614305E015
:101B0000B4FBF1F11468C4F3881461431268C2F3A2
:101B10000142521C5200B1FBF2F10160C3E7C0F375
:101B20000121032908D16E4B0833196821F4F812FA
:101B30007249014011431960694A70321168C0F35B
:101B40000B000143116070476949443908607047D0
:101B50006749403908607047694908607047604AC2
:101B60003032002903D011680143116070471168B9
:101B70008143116070475A4A3432002903D01168FA
:101B80000143116070471168814311607047544AE6
:101B90003832002903D01168014311607047116881
:101BA0008143116070474E4A4032002903D01168CA
:101BB0000143116070471168814311607047484AC2
:101BC0004432002903D01168014311607047116845
:101BD000814311607047424A1032002903D01168D6
:101BE00001431160704711688143116070473C4A9E
:101BF0001432002903D01168014311607047116845
:101C0000814311607047364A1832002903D01168A9
:101C10000143116070471168814311607047304A79
:101C20002032002903D01168014311607047116808
:101C30008143116070472A4A2432002903D0116879
:101C40000143116070471168814311607047244A55
:101C50005032002903D011680143116070471168A8
:101C60008143116070471E4A5432002903D0116825
:101C70000143116070471168814311607047184A31
:101C80005832002903D01168014311607047116870
:101C9000814311607047124A6032002903D01168F5
:101CA00001431160704711688143116070470C4A0D
:101CB0006432002903D01168014311607047116834
:101CC000814311607047064A0D32002903D0117814
:101CD0000143117070471178814311707047000003
:101CE00000380240FFFFF6FE10300024000047429B
:101CF000800E47420024F40024000020FFFCFF0F68
:101D00005C0147420948016841F080710160E5E7E4
:101D100001460020054A683A12680A42DED00120D6
:101D2000DCE7024966390870D8E7000074380240E1
:101D30000648804706480047FEE7FEE7FEE7FEE765
:101D4000FEE7FEE7FEE7FEE7FEE7FEE72503000805
:101D5000890100080EB5C10F80EAE0700844CA0787
:101D6000002140F233438DE80E000A460B4600F096
:101D700044F803B000BD0EB540F23341029100219A
:101D8000CDE900110A460B4600F037F803B000BD5C
:101D900030B5002904DB4FF00044404264EB010100
:101DA000002B04DB4FF00044524264EB03038B42F0
:101DB00008BF824230BD000030B5002904DB4FF07F
:101DC0000044404264EB0101002B04DB4FF000446F
:101DD000524264EB0303994208BF904230BD0000B9
:101DE00010B5002B08DA401C41F1000192185B414C
:101DF0001A4301D120F0010010BD2DE9F04D9246AB
:101E00009B4611B1B1FA81F202E0B0FA80F22032C1
:101E1000904600F057F804460F4640EA0A0041EAAF
:101E20000B0153465A46084303D120463946BDE8C4
:101E3000F08D114653EA010015D0C8F1400250461A
:101E400000F04FF805460E4650465946424600F00F
:101E500039F8084301D0012000E00020054346EA9C
:101E6000E0762C4337430A984FEA4453A0EB08002E
:101E70004FEAD4240A304FF0000244EA47544FEAB4
:101E8000D72502D500200146D1E701051019694187
:101E9000DDE9084500196941BDE8F04DA0E7000003
:101EA000064C074D06E0E06840F0010394E80700A7
:101EB00098471034AC42F6D3FEF76AF9F0300008C8
:101EC00010310008202A04DB203A00FA02F1002039
:101ED00070479140C2F1200320FA03F31943904068
:101EE0007047202A04DB203A21FA02F000217047D3
:101EF00021FA02F3D040C2F1200291400843194672
:101F0000704702E008C8121F08C1002AFAD17047C2
:101F10007047002001E001C1121F002AFBD1704769
:101F200000000000000000000000000000000000B1
:101F300000000000000000000000000000000000A1
:101F40000000000000000000000000000000000091
:101F500000008001800180018001800180018001FA
:101F6000800180018001800180018001000000006B
:101F7000800180010000000000000000000000005F
:101F800000000000CC00CC00CC00CC00CC00CC0089
:101F90000000000000000000000000000000000041
:101FA0000000000000000000000000000000000031
:101FB000000000000000000000000000600C600C49
:101FC000600C30063006FE1FFE1F3006380718036F
:101FD000FE1FFE1F180318038C018C018C010000EA
:101FE00000008000E003F80F9C0E8C1C8C188C0005
:101FF0009800F801E007800E801C8C188C189C1843
:10200000B80CF00FE003800080000000000000002A
:102010000000000000000E181B0C110C1106110628
:10202000110311039B018E01C038C06C60446044F1
:10203000304430441844186C0C3800000000000094
:102040000000E001F0033807180618063003F0011D
:10205000F000F8009C310E33061E061C061C063FDD
:10206000FC73F021000000000000000000000000F0
:10207000000000000C000C000C000C000C000C0018
:102080000000000000000000000000000000000050
:102090000000000000000000000000000000000040
:1020A0000000000200038001C000C000600060006A
:1020B00030003000300030003000300030003000A0
:1020C00060006000C000C00080010003000200004A
:1020D000000020006000C0008001800100030003B8
:1020E00000060006000600060006000600060006C0
:1020F0000003000380018001C00060002000000098
:10210000000000000000000000000000C000C0004F
:10211000D806F807E001300338070000000000008F
:1021200000000000000000000000000000000000AF
:10213000000000000000000000000000800180019D
:10214000800180018001FC3FFC3F80018001800113
:10215000800180010000000000000000000000007D
:10216000000000000000000000000000000000006F
:10217000000000000000000000000000000000005F
:1021800000008001800100010001800000000000CB
:10219000000000000000000000000000000000003F
:1021A0000000000000000000E007E0070000000061
:1021B000000000000000000000000000000000001F
:1021C000000000000000000000000000000000000F
:1021D00000000000000000000000000000000000FF
:1021E0000000C000C000000000000000000000006F
:1021F0000000000C000C00060006000600030003AF
:1022000000038003800180018001C000C000C00085
:1022100060006000000000000000000000000000FE
:102220000000E003F007380E180C0C180C180C18FE
:102230000C180C180C180C180C180C18180C380E5C
:10224000F007E003000000000000000000000000B4
:10225000000000018001C001F001980188018001A7
:102260008001800180018001800180018001800166
:10227000800180010000000000000000000000005C
:102280000000E003F80F180C0C180C1800180018C8
:10229000000C000600038001C00060003000180040
:1022A000FC1FFC1F000000000000000000000000F8
:1022B0000000E001F807180E0C0C0C0C000C0006D6
:1022C000C003C007000C001800180C180C18180CDC
:1022D000F807E0030000000000000000000000001C
:1022E0000000000C000E000F000F800DC00C600CF1
:1022F000600C300C180C0C0CFC3FFC3F000C000C6C
:10230000000C000C000000000000000000000000B5
:102310000000F80FF80F180018000C00EC03FC0781
:102320001C0E001C0018001800180C181C0C180EAD
:10233000F807E003000000000000000000000000BB
:102340000000C007F00F381C181818000C00CC0350
:10235000EC0F3C0E1C1C0C180C180C18181C380E1A
:10236000F007E00300000000000000000000000093
:102370000000FC1FFC1F000C000600060003800389
:102380008001C001C000E00060006000700030000B
:1023900030003000000000000000000000000000DD
:1023A0000000E003F007380E180C180C180C380663
:1023B000F007F007180C0C180C180C180C18380C37
:1023C000F80FE00300000000000000000000000023
:1023D0000000E003F007380E1C0C0C180C180C1849
:1023E0001C1C381EF81BE0190018000C000C1C0EF9
:1023F000F807F001000000000000000000000000ED
:1024000000000000000000000000000080018001CA
:1024100000000000000000000000000000000000BC
:1024200080018001000000000000000000000000AA
:10243000000000000000000000000000800180019A
:10244000000000000000000000000000000000008C
:1024500080018001000100018000000000000000F8
:10246000000000000000000000000000000000006C
:102470000010001C800FE003F8001800F800E003D3
:10248000800F001C00100000000000000000000091
:10249000000000000000000000000000000000003C
:1024A000F81F000000000000F81F000000000000FE
:1024B000000000000000000000000000000000001C
:1024C000000000000000000000000000000000000C
:1024D00008003800F001C007001F0018001FC007E7
:1024E000F0013800080000000000000000000000BB
:1024F0000000E003F80F180C0C180C180018000C62
:10250000000600038001C000C000C0000000000001
:10251000C000C0000000000000000000000000003B
:1025200000000000E00718180420C229224A1144C4
:1025300009440944094409221113E20C0240042011
:102540001818E00700000000000000000000000074
:10255000000080038003C006C006C006600C600C4B
:10256000301830183018F83FF83F1C700C600C60C1
:1025700006C006C0000000000000000000000000CF
:102580000000FC03FC0F0C0C0C180C180C180C0CA5
:10259000FC07FC0F0C180C300C300C300C300C18F5
:1025A000FC1FFC070000000000000000000000000D
:1025B0000000C007F01F38381C300C7006600600A1
:1025C0000600060006000600060006600C701C30BF
:1025D000F01FE00700000000000000000000000005
:1025E0000000FE03FE0F060E061806180630063021
:1025F0000630063006300630063006180618060E7D
:10260000FE0FFE03000000000000000000000000BC
:102610000000FC3FFC3F0C000C000C000C000C0008
:10262000FC1FFC1F0C000C000C000C000C000C002C
:10263000FC3FFC3F00000000000000000000000024
:102640000000F83FF83F18001800180018001800A4
:10265000F81FF81F180018001800180018001800BC
:10266000180018000000000000000000000000003A
:102670000000E00FF83F3C780E6006E007C0030062
:10268000030003FE03FE03C007C006C00EC03CF0FB
:10269000F83FE00F00000000000000000000000014
:1026A00000000C300C300C300C300C300C300C3086
:1026B000FC3FFC3F0C300C300C300C300C300C303C
:1026C0000C300C3000000000000000000000000092
:1026D0000000800180018001800180018001800173
:1026E00080018001800180018001800180018001E2
:1026F00080018001000000000000000000000000D8
:10270000000000060006000600060006000600069F
:102710000006000600060006000618061806380720
:10272000F003E001000000000000000000000000D5
:10273000000006300618060C060606038601C600D1
:1027400066007600DE008E0106030606060C0618FB
:1027500006300660000000000000000000000000DD
:1027600000001800180018001800180018001800C1
:102770001800180018001800180018001800180099
:10278000F81FF81F0000000000000000000000001B
:1027900000000EE01EF01EF01EF036D836D836D8F7
:1027A00036D866CC66CC66CCC6C6C6C6C6C6C6C655
:1027B00086C386C300000000000000000000000087
:1027C00000000C301C303C303C306C306C30CC3075
:1027D000CC308C310C330C330C360C360C3C0C3CAE
:1027E0000C380C3000000000000000000000000069
:1027F0000000E007F81F1C380E70066003C003C01D
:1028000003C003C003C003C003C006600E701C38C1
:10281000F81FE007000000000000000000000000BA
:102820000000FC0FFC1F0C380C300C300C300C304E
:102830000C18FC1FFC070C000C000C000C000C001A
:102840000C000C0000000000000000000000000070
:102850000000E007F81F1C380E70066003E003C09C
:1028600003C003C003C003C007E006630E3F1C3C67
:10287000F83FE0F700C0000000000000000000008A
:102880000000FE0FFE1F0638063006300630063800
:10289000FE1FFE0706030606060C0618061806307D
:1028A000063006600000000000000000000000008C
:1028B0000000E003F80F1C0C0C180C180C001C0096
:1028C000F803E00F001E0038063006300E301C1CE6
:1028D000F80FE0070000000000000000000000000A
:1028E0000000FE7FFE7F8001800180018001800169
:1028F00080018001800180018001800180018001D0
:1029000080018001000000000000000000000000C5
:1029100000000C300C300C300C300C300C300C3013
:102920000C300C300C300C300C300C300C301818D3
:10293000F81FE00700000000000000000000000099
:10294000000003600630063006300C180C180C1816
:10295000180C180C380E3006300670076003600340
:10296000C001C001000000000000000000000000E5
:1029700000000360C361C361C361663366336633BD
:102980006633663366336C1B6C1B6C1B2C1A3C1E47
:10299000380E380E000000000000000000000000AB
:1029A00000000FE00C7018303018700C600EC0077B
:1029B00080038003C003E006700C301C18180C3034
:1029C0000E6007E0000000000000000000000000B2
:1029D000000003C006600C301C383818300C60064C
:1029E000E007C00380018001800180018001800137
:1029F00080018001000000000000000000000000D5
:102A00000000FC7FFC7F006000300018000C000616
:102A100000038001C0006000300018000C000600B8
:102A2000FE7FFE7F000000000000000000000000AC
:102A30000000E003E00360006000600060006000F0
:102A40006000600060006000600060006000600086
:102A500060006000600060006000E003E0030000D0
:102A6000000030003000600060006000C000C00066
:102A7000C000C00180018001800100030003000349
:102A8000000600060000000000000000000000003A
:102A90000000E003E0030003000300030003000361
:102AA000000300030003000300030003000300030E
:102AB00000030003000300030003E003E003000041
:102AC00000000000C001C001600360036003300625
:102AD0003006180C180C0000000000000000000078
:102AE00000000000000000000000000000000000E6
:102AF00000000000000000000000000000000000D6
:102B000000000000000000000000000000000000C5
:102B10000000FFFFFFFF00000000000000000000B9
:102B200000000C000C000C000C000C000C0000005D
:102B30000000000000000000000000000000000095
:102B40000000000000000000000000000000000085
:102B5000000000000000000000000000F003F80783
:102B60001C0C0C0C000FF00FF80C0C0C0C0C1C0FB8
:102B7000F80FF01800000000000000000000000046
:102B8000000018001800180018001800D803F80FEB
:102B9000380C181818181818181818181818380C8D
:102BA000F80FD80300000000000000000000000043
:102BB000000000000000000000000000C003F0075B
:102BC000300E180C1800180018001800180C300EE1
:102BD000F007C0030000000000000000000000003B
:102BE000000000180018001800180018C01BF01F83
:102BF000301C181818181818181818181818301C1D
:102C0000F01FC01B000000000000000000000000DA
:102C1000000000000000000000000000C003F00FF2
:102C2000300C1818F81FF81F180018003818301C3E
:102C3000F00FC007000000000000000000000000CE
:102C40000000800FC00FC000C000C000F007F007F8
:102C5000C000C000C000C000C000C000C000C00074
:102C6000C000C000000000000000000000000000E4
:102C7000000000000000000000000000E00DF80F60
:102C8000180E0C0C0C0C0C0C0C0C0C0C0C0C180E68
:102C9000F80FE00D000C0C0C1C06F807F00100000A
:102CA000000018001800180018001800D807F80FC6
:102CB000381C181818181818181818181818181870
:102CC00018181818000000000000000000000000A4
:102CD0000000C000C000000000000000C000C000F4
:102CE000C000C000C000C000C000C000C000C000E4
:102CF000C000C00000000000000000000000000054
:102D00000000C000C000000000000000C000C000C3
:102D1000C000C000C000C000C000C000C000C000B3
:102D2000C000C000C000C000C000F8007800000073
:102D300000000C000C000C000C000C000C0C0C062D
:102D40000C038C01CC006C00FC009C018C030C0378
:102D50000C060C0C00000000000000000000000049
:102D60000000C000C000C000C000C000C000C00023
:102D7000C000C000C000C000C000C000C000C00053
:102D8000C000C000000000000000000000000000C3
:102D90000000000000000000000000007C3CFF7EFE
:102DA000C7E383C183C183C183C183C183C183C19D
:102DB00083C183C10000000000000000000000008B
:102DC0000000000000000000000000009807F80F5D
:102DD000381C18181818181818181818181818184F
:102DE0001818181800000000000000000000000083
:102DF000000000000000000000000000C003F00F11
:102E0000300C181818181818181818181818300C2A
:102E1000F00FC003000000000000000000000000F0
:102E2000000000000000000000000000D803F80FC0
:102E3000380C181818181818181818181818380CEA
:102E4000F80FD80318001800180018001800000028
:102E5000000000000000000000000000C01BF01F88
:102E6000301C181818181818181818181818301CAA
:102E7000F01FC01B001800180018001800180000F0
:102E8000000000000000000000000000B007F00398
:102E90007000300030003000300030003000300072
:102EA00030003000000000000000000000000000C2
:102EB000000000000000000000000000E003F0033C
:102EC000380E180C3800F003C007000C180C380E30
:102ED000F007E00300000000000000000000000018
:102EE000000000008000C000C000C000F007F00734
:102EF000C000C000C000C000C000C000C000C000D2
:102F0000C007800700000000000000000000000073
:102F10000000000000000000000000001818181851
:102F20001818181818181818181818181818381CFD
:102F3000F01FE01900000000000000000000000089
:102F40000000000000000000000000000C18180C39
:102F5000180C180C3006300630066003600360035E
:102F6000C001C001000000000000000000000000DF
:102F7000000000000000000000000000C141C1414D
:102F8000C3616363636363633636363636361C1C4F
:102F90001C1C1C1C000000000000000000000000C1
:102FA0000000000000000000000000001C38381C79
:102FB000300C600660036003600360036006300C41
:102FC000381C1C3800000000000000000000000059
:102FD0000000000000000000000000001830301861
:102FE00030187018600C600CE00CC006C00680033E
:102FF0008003800380018001C001F00070000000A8
:10300000000000000000000000000000FC1FFC1F8A
:10301000000C000600038001C000600030001800B2
:10302000FC1FFC1F0000000000000000000000006A
:10303000000000038001C000C000C000C000C0004C
:10304000C00060006000300060004000C000C000B0
:10305000C000C000C000C0008001000300000000EC
:1030600000008001800180018001800180018001D9
:103070008001800180018001800180018001800148
:1030800080018001800180018001800180010000B9
:1030900000006000C000C00180018001800180014B
:1030A000800100030003000600030001800180018D
:1030B0008001800180018001C000600000000000EC
:1030C0000000000000000000000000000000000000
:1030D000F010F81F080F00000000000000000000C2
:1030E00000000000000000000000000000000000E0
:1030F000103100080000002034000000021F00080A
:10310000443100083400002004040000121F0008AD
:1031100000449508000000000000000001020304C4
:10312000060708090000FFFF00000000201F00083C
:103130001000180000000000010203040102030453
:04314000060708096D
:040000050800018965
:00000001FF
